{
  "_format": "hh-sol-artifact-1",
  "contractName": "FluxAccessHub",
  "sourceName": "contracts/FluxAccessHub.sol",
  "abi": [
    {
      "inputs": [],
      "stateMutability": "nonpayable",
      "type": "constructor"
    },
    {
      "inputs": [],
      "name": "AccessControlBadConfirmation",
      "type": "error"
    },
    {
      "inputs": [
        {
          "internalType": "address",
          "name": "account",
          "type": "address"
        },
        {
          "internalType": "bytes32",
          "name": "neededRole",
          "type": "bytes32"
        }
      ],
      "name": "AccessControlUnauthorizedAccount",
      "type": "error"
    },
    {
      "inputs": [],
      "name": "EnforcedPause",
      "type": "error"
    },
    {
      "inputs": [],
      "name": "ExpectedPause",
      "type": "error"
    },
    {
      "inputs": [],
      "name": "ReentrancyGuardReentrantCall",
      "type": "error"
    },
    {
      "anonymous": false,
      "inputs": [
        {
          "indexed": true,
          "internalType": "address",
          "name": "contractAddress",
          "type": "address"
        }
      ],
      "name": "ContractDeactivated",
      "type": "event"
    },
    {
      "anonymous": false,
      "inputs": [
        {
          "indexed": true,
          "internalType": "address",
          "name": "contractAddress",
          "type": "address"
        },
        {
          "indexed": false,
          "internalType": "enum IFluxAccessHub.ContractType",
          "name": "contractType",
          "type": "uint8"
        },
        {
          "indexed": false,
          "internalType": "uint256",
          "name": "version",
          "type": "uint256"
        }
      ],
      "name": "ContractRegistered",
      "type": "event"
    },
    {
      "anonymous": false,
      "inputs": [
        {
          "indexed": true,
          "internalType": "address",
          "name": "oldContract",
          "type": "address"
        },
        {
          "indexed": true,
          "internalType": "address",
          "name": "newContract",
          "type": "address"
        },
        {
          "indexed": false,
          "internalType": "uint256",
          "name": "version",
          "type": "uint256"
        }
      ],
      "name": "ContractUpdated",
      "type": "event"
    },
    {
      "anonymous": false,
      "inputs": [
        {
          "indexed": true,
          "internalType": "address",
          "name": "delegator",
          "type": "address"
        },
        {
          "indexed": true,
          "internalType": "address",
          "name": "delegatee",
          "type": "address"
        },
        {
          "indexed": false,
          "internalType": "bytes32",
          "name": "role",
          "type": "bytes32"
        },
        {
          "indexed": false,
          "internalType": "uint256",
          "name": "expiresAt",
          "type": "uint256"
        }
      ],
      "name": "DelegationCreated",
      "type": "event"
    },
    {
      "anonymous": false,
      "inputs": [
        {
          "indexed": true,
          "internalType": "address",
          "name": "delegator",
          "type": "address"
        },
        {
          "indexed": true,
          "internalType": "address",
          "name": "delegatee",
          "type": "address"
        },
        {
          "indexed": false,
          "internalType": "bytes32",
          "name": "role",
          "type": "bytes32"
        }
      ],
      "name": "DelegationRevoked",
      "type": "event"
    },
    {
      "anonymous": false,
      "inputs": [
        {
          "indexed": true,
          "internalType": "address",
          "name": "executor",
          "type": "address"
        },
        {
          "indexed": false,
          "internalType": "string",
          "name": "action",
          "type": "string"
        },
        {
          "indexed": false,
          "internalType": "bytes",
          "name": "data",
          "type": "bytes"
        }
      ],
      "name": "EmergencyActionExecuted",
      "type": "event"
    },
    {
      "anonymous": false,
      "inputs": [
        {
          "indexed": false,
          "internalType": "enum IFluxAccessHub.EmergencyLevel",
          "name": "oldLevel",
          "type": "uint8"
        },
        {
          "indexed": false,
          "internalType": "enum IFluxAccessHub.EmergencyLevel",
          "name": "newLevel",
          "type": "uint8"
        },
        {
          "indexed": true,
          "internalType": "address",
          "name": "executor",
          "type": "address"
        }
      ],
      "name": "EmergencyLevelChanged",
      "type": "event"
    },
    {
      "anonymous": false,
      "inputs": [
        {
          "indexed": true,
          "internalType": "bytes32",
          "name": "operationId",
          "type": "bytes32"
        },
        {
          "indexed": true,
          "internalType": "address",
          "name": "canceller",
          "type": "address"
        }
      ],
      "name": "OperationCancelled",
      "type": "event"
    },
    {
      "anonymous": false,
      "inputs": [
        {
          "indexed": true,
          "internalType": "bytes32",
          "name": "operationId",
          "type": "bytes32"
        },
        {
          "indexed": true,
          "internalType": "address",
          "name": "executor",
          "type": "address"
        }
      ],
      "name": "OperationExecuted",
      "type": "event"
    },
    {
      "anonymous": false,
      "inputs": [
        {
          "indexed": true,
          "internalType": "bytes32",
          "name": "operationId",
          "type": "bytes32"
        },
        {
          "indexed": true,
          "internalType": "address",
          "name": "target",
          "type": "address"
        },
        {
          "indexed": false,
          "internalType": "uint256",
          "name": "executeAfter",
          "type": "uint256"
        }
      ],
      "name": "OperationScheduled",
      "type": "event"
    },
    {
      "anonymous": false,
      "inputs": [
        {
          "indexed": false,
          "internalType": "address",
          "name": "account",
          "type": "address"
        }
      ],
      "name": "Paused",
      "type": "event"
    },
    {
      "anonymous": false,
      "inputs": [
        {
          "indexed": true,
          "internalType": "bytes32",
          "name": "role",
          "type": "bytes32"
        },
        {
          "indexed": true,
          "internalType": "bytes32",
          "name": "previousAdminRole",
          "type": "bytes32"
        },
        {
          "indexed": true,
          "internalType": "bytes32",
          "name": "newAdminRole",
          "type": "bytes32"
        }
      ],
      "name": "RoleAdminChanged",
      "type": "event"
    },
    {
      "anonymous": false,
      "inputs": [
        {
          "indexed": true,
          "internalType": "bytes32",
          "name": "role",
          "type": "bytes32"
        },
        {
          "indexed": true,
          "internalType": "address",
          "name": "account",
          "type": "address"
        },
        {
          "indexed": true,
          "internalType": "address",
          "name": "sender",
          "type": "address"
        }
      ],
      "name": "RoleGranted",
      "type": "event"
    },
    {
      "anonymous": false,
      "inputs": [
        {
          "indexed": true,
          "internalType": "bytes32",
          "name": "role",
          "type": "bytes32"
        },
        {
          "indexed": true,
          "internalType": "address",
          "name": "account",
          "type": "address"
        },
        {
          "indexed": true,
          "internalType": "address",
          "name": "sender",
          "type": "address"
        }
      ],
      "name": "RoleRevoked",
      "type": "event"
    },
    {
      "anonymous": false,
      "inputs": [
        {
          "indexed": false,
          "internalType": "address",
          "name": "account",
          "type": "address"
        }
      ],
      "name": "Unpaused",
      "type": "event"
    },
    {
      "inputs": [],
      "name": "ADMIN_ROLE",
      "outputs": [
        {
          "internalType": "bytes32",
          "name": "",
          "type": "bytes32"
        }
      ],
      "stateMutability": "view",
      "type": "function"
    },
    {
      "inputs": [],
      "name": "DEFAULT_ADMIN_ROLE",
      "outputs": [
        {
          "internalType": "bytes32",
          "name": "",
          "type": "bytes32"
        }
      ],
      "stateMutability": "view",
      "type": "function"
    },
    {
      "inputs": [],
      "name": "EMERGENCY_ROLE",
      "outputs": [
        {
          "internalType": "bytes32",
          "name": "",
          "type": "bytes32"
        }
      ],
      "stateMutability": "view",
      "type": "function"
    },
    {
      "inputs": [],
      "name": "GOVERNANCE_ROLE",
      "outputs": [
        {
          "internalType": "bytes32",
          "name": "",
          "type": "bytes32"
        }
      ],
      "stateMutability": "view",
      "type": "function"
    },
    {
      "inputs": [],
      "name": "MAX_DELEGATION_DURATION",
      "outputs": [
        {
          "internalType": "uint256",
          "name": "",
          "type": "uint256"
        }
      ],
      "stateMutability": "view",
      "type": "function"
    },
    {
      "inputs": [],
      "name": "MIN_TIMELOCK_DELAY",
      "outputs": [
        {
          "internalType": "uint256",
          "name": "",
          "type": "uint256"
        }
      ],
      "stateMutability": "view",
      "type": "function"
    },
    {
      "inputs": [],
      "name": "OPERATOR_ROLE",
      "outputs": [
        {
          "internalType": "bytes32",
          "name": "",
          "type": "bytes32"
        }
      ],
      "stateMutability": "view",
      "type": "function"
    },
    {
      "inputs": [],
      "name": "SUPER_ADMIN_ROLE",
      "outputs": [
        {
          "internalType": "bytes32",
          "name": "",
          "type": "bytes32"
        }
      ],
      "stateMutability": "view",
      "type": "function"
    },
    {
      "inputs": [
        {
          "internalType": "bytes32",
          "name": "proposalId",
          "type": "bytes32"
        }
      ],
      "name": "approveMultiSigOperation",
      "outputs": [],
      "stateMutability": "nonpayable",
      "type": "function"
    },
    {
      "inputs": [
        {
          "internalType": "bytes32",
          "name": "operationId",
          "type": "bytes32"
        }
      ],
      "name": "cancelOperation",
      "outputs": [],
      "stateMutability": "nonpayable",
      "type": "function"
    },
    {
      "inputs": [],
      "name": "currentEmergencyLevel",
      "outputs": [
        {
          "internalType": "enum IFluxAccessHub.EmergencyLevel",
          "name": "",
          "type": "uint8"
        }
      ],
      "stateMutability": "view",
      "type": "function"
    },
    {
      "inputs": [
        {
          "internalType": "address",
          "name": "contractAddress",
          "type": "address"
        }
      ],
      "name": "deactivateContract",
      "outputs": [],
      "stateMutability": "nonpayable",
      "type": "function"
    },
    {
      "inputs": [
        {
          "internalType": "address",
          "name": "delegatee",
          "type": "address"
        },
        {
          "internalType": "bytes32",
          "name": "role",
          "type": "bytes32"
        },
        {
          "internalType": "uint256",
          "name": "duration",
          "type": "uint256"
        },
        {
          "internalType": "bytes32[]",
          "name": "allowedFunctions",
          "type": "bytes32[]"
        }
      ],
      "name": "delegateRole",
      "outputs": [
        {
          "internalType": "uint256",
          "name": "delegationId",
          "type": "uint256"
        }
      ],
      "stateMutability": "nonpayable",
      "type": "function"
    },
    {
      "inputs": [
        {
          "internalType": "string",
          "name": "action",
          "type": "string"
        },
        {
          "internalType": "bytes",
          "name": "data",
          "type": "bytes"
        }
      ],
      "name": "executeEmergencyAction",
      "outputs": [],
      "stateMutability": "nonpayable",
      "type": "function"
    },
    {
      "inputs": [
        {
          "internalType": "bytes32",
          "name": "proposalId",
          "type": "bytes32"
        }
      ],
      "name": "executeMultiSigOperation",
      "outputs": [],
      "stateMutability": "nonpayable",
      "type": "function"
    },
    {
      "inputs": [
        {
          "internalType": "bytes32",
          "name": "operationId",
          "type": "bytes32"
        }
      ],
      "name": "executeOperation",
      "outputs": [],
      "stateMutability": "nonpayable",
      "type": "function"
    },
    {
      "inputs": [
        {
          "internalType": "address",
          "name": "account",
          "type": "address"
        }
      ],
      "name": "getAccountRoles",
      "outputs": [
        {
          "internalType": "bytes32[]",
          "name": "",
          "type": "bytes32[]"
        }
      ],
      "stateMutability": "view",
      "type": "function"
    },
    {
      "inputs": [
        {
          "internalType": "address",
          "name": "account",
          "type": "address"
        }
      ],
      "name": "getActiveDelegations",
      "outputs": [
        {
          "internalType": "uint256[]",
          "name": "",
          "type": "uint256[]"
        }
      ],
      "stateMutability": "view",
      "type": "function"
    },
    {
      "inputs": [
        {
          "internalType": "bytes32",
          "name": "role",
          "type": "bytes32"
        }
      ],
      "name": "getAllRoleMembers",
      "outputs": [
        {
          "internalType": "address[]",
          "name": "",
          "type": "address[]"
        }
      ],
      "stateMutability": "view",
      "type": "function"
    },
    {
      "inputs": [
        {
          "internalType": "address",
          "name": "contractAddress",
          "type": "address"
        }
      ],
      "name": "getContractInfo",
      "outputs": [
        {
          "components": [
            {
              "internalType": "address",
              "name": "contractAddress",
              "type": "address"
            },
            {
              "internalType": "enum IFluxAccessHub.ContractType",
              "name": "contractType",
              "type": "uint8"
            },
            {
              "internalType": "bool",
              "name": "isActive",
              "type": "bool"
            },
            {
              "internalType": "uint256",
              "name": "version",
              "type": "uint256"
            },
            {
              "internalType": "uint256",
              "name": "registeredAt",
              "type": "uint256"
            }
          ],
          "internalType": "struct IFluxAccessHub.ContractInfo",
          "name": "",
          "type": "tuple"
        }
      ],
      "stateMutability": "view",
      "type": "function"
    },
    {
      "inputs": [
        {
          "internalType": "enum IFluxAccessHub.ContractType",
          "name": "contractType",
          "type": "uint8"
        }
      ],
      "name": "getContractsByType",
      "outputs": [
        {
          "internalType": "address[]",
          "name": "",
          "type": "address[]"
        }
      ],
      "stateMutability": "view",
      "type": "function"
    },
    {
      "inputs": [
        {
          "internalType": "uint256",
          "name": "delegationId",
          "type": "uint256"
        }
      ],
      "name": "getDelegation",
      "outputs": [
        {
          "components": [
            {
              "internalType": "address",
              "name": "delegator",
              "type": "address"
            },
            {
              "internalType": "address",
              "name": "delegatee",
              "type": "address"
            },
            {
              "internalType": "bytes32",
              "name": "role",
              "type": "bytes32"
            },
            {
              "internalType": "uint256",
              "name": "expiresAt",
              "type": "uint256"
            },
            {
              "internalType": "bytes32[]",
              "name": "allowedFunctions",
              "type": "bytes32[]"
            },
            {
              "internalType": "bool",
              "name": "isActive",
              "type": "bool"
            }
          ],
          "internalType": "struct IFluxAccessHub.Delegation",
          "name": "",
          "type": "tuple"
        }
      ],
      "stateMutability": "view",
      "type": "function"
    },
    {
      "inputs": [],
      "name": "getEmergencyLevel",
      "outputs": [
        {
          "internalType": "enum IFluxAccessHub.EmergencyLevel",
          "name": "",
          "type": "uint8"
        }
      ],
      "stateMutability": "view",
      "type": "function"
    },
    {
      "inputs": [],
      "name": "getMultiSigConfig",
      "outputs": [
        {
          "components": [
            {
              "internalType": "uint256",
              "name": "requiredSignatures",
              "type": "uint256"
            },
            {
              "internalType": "uint256",
              "name": "executionDelay",
              "type": "uint256"
            },
            {
              "internalType": "address[]",
              "name": "signers",
              "type": "address[]"
            }
          ],
          "internalType": "struct IFluxAccessHub.MultiSigConfig",
          "name": "",
          "type": "tuple"
        }
      ],
      "stateMutability": "view",
      "type": "function"
    },
    {
      "inputs": [
        {
          "internalType": "bytes32",
          "name": "operationId",
          "type": "bytes32"
        }
      ],
      "name": "getOperationState",
      "outputs": [
        {
          "components": [
            {
              "internalType": "bytes32",
              "name": "operationId",
              "type": "bytes32"
            },
            {
              "internalType": "address",
              "name": "target",
              "type": "address"
            },
            {
              "internalType": "bytes",
              "name": "data",
              "type": "bytes"
            },
            {
              "internalType": "uint256",
              "name": "executeAfter",
              "type": "uint256"
            },
            {
              "internalType": "bool",
              "name": "executed",
              "type": "bool"
            },
            {
              "internalType": "bool",
              "name": "cancelled",
              "type": "bool"
            }
          ],
          "internalType": "struct IFluxAccessHub.TimeLock",
          "name": "",
          "type": "tuple"
        }
      ],
      "stateMutability": "view",
      "type": "function"
    },
    {
      "inputs": [
        {
          "internalType": "bytes32",
          "name": "role",
          "type": "bytes32"
        }
      ],
      "name": "getRoleAdmin",
      "outputs": [
        {
          "internalType": "bytes32",
          "name": "",
          "type": "bytes32"
        }
      ],
      "stateMutability": "view",
      "type": "function"
    },
    {
      "inputs": [
        {
          "internalType": "bytes32",
          "name": "role",
          "type": "bytes32"
        },
        {
          "internalType": "uint256",
          "name": "index",
          "type": "uint256"
        }
      ],
      "name": "getRoleMember",
      "outputs": [
        {
          "internalType": "address",
          "name": "",
          "type": "address"
        }
      ],
      "stateMutability": "view",
      "type": "function"
    },
    {
      "inputs": [
        {
          "internalType": "bytes32",
          "name": "role",
          "type": "bytes32"
        }
      ],
      "name": "getRoleMemberCount",
      "outputs": [
        {
          "internalType": "uint256",
          "name": "",
          "type": "uint256"
        }
      ],
      "stateMutability": "view",
      "type": "function"
    },
    {
      "inputs": [
        {
          "internalType": "bytes32",
          "name": "role",
          "type": "bytes32"
        },
        {
          "internalType": "address",
          "name": "account",
          "type": "address"
        }
      ],
      "name": "grantRole",
      "outputs": [],
      "stateMutability": "nonpayable",
      "type": "function"
    },
    {
      "inputs": [
        {
          "internalType": "bytes32[]",
          "name": "roles",
          "type": "bytes32[]"
        },
        {
          "internalType": "address",
          "name": "account",
          "type": "address"
        }
      ],
      "name": "grantRoles",
      "outputs": [],
      "stateMutability": "nonpayable",
      "type": "function"
    },
    {
      "inputs": [
        {
          "internalType": "address",
          "name": "account",
          "type": "address"
        },
        {
          "internalType": "bytes32[]",
          "name": "roles",
          "type": "bytes32[]"
        }
      ],
      "name": "hasAllRoles",
      "outputs": [
        {
          "internalType": "bool",
          "name": "",
          "type": "bool"
        }
      ],
      "stateMutability": "view",
      "type": "function"
    },
    {
      "inputs": [
        {
          "internalType": "address",
          "name": "account",
          "type": "address"
        },
        {
          "internalType": "bytes32[]",
          "name": "roles",
          "type": "bytes32[]"
        }
      ],
      "name": "hasAnyRole",
      "outputs": [
        {
          "internalType": "bool",
          "name": "",
          "type": "bool"
        }
      ],
      "stateMutability": "view",
      "type": "function"
    },
    {
      "inputs": [
        {
          "internalType": "bytes32",
          "name": "role",
          "type": "bytes32"
        },
        {
          "internalType": "address",
          "name": "account",
          "type": "address"
        }
      ],
      "name": "hasRole",
      "outputs": [
        {
          "internalType": "bool",
          "name": "",
          "type": "bool"
        }
      ],
      "stateMutability": "view",
      "type": "function"
    },
    {
      "inputs": [
        {
          "internalType": "address",
          "name": "account",
          "type": "address"
        },
        {
          "internalType": "bytes32",
          "name": "role",
          "type": "bytes32"
        },
        {
          "internalType": "address",
          "name": "contractAddress",
          "type": "address"
        }
      ],
      "name": "hasRoleInContract",
      "outputs": [
        {
          "internalType": "bool",
          "name": "",
          "type": "bool"
        }
      ],
      "stateMutability": "view",
      "type": "function"
    },
    {
      "inputs": [
        {
          "internalType": "address",
          "name": "contractAddress",
          "type": "address"
        }
      ],
      "name": "isContractActive",
      "outputs": [
        {
          "internalType": "bool",
          "name": "",
          "type": "bool"
        }
      ],
      "stateMutability": "view",
      "type": "function"
    },
    {
      "inputs": [
        {
          "internalType": "uint256",
          "name": "delegationId",
          "type": "uint256"
        }
      ],
      "name": "isDelegationActive",
      "outputs": [
        {
          "internalType": "bool",
          "name": "",
          "type": "bool"
        }
      ],
      "stateMutability": "view",
      "type": "function"
    },
    {
      "inputs": [
        {
          "internalType": "bytes32",
          "name": "operationId",
          "type": "bytes32"
        }
      ],
      "name": "isOperationPending",
      "outputs": [
        {
          "internalType": "bool",
          "name": "",
          "type": "bool"
        }
      ],
      "stateMutability": "view",
      "type": "function"
    },
    {
      "inputs": [
        {
          "internalType": "bytes32",
          "name": "operationId",
          "type": "bytes32"
        }
      ],
      "name": "isOperationReady",
      "outputs": [
        {
          "internalType": "bool",
          "name": "",
          "type": "bool"
        }
      ],
      "stateMutability": "view",
      "type": "function"
    },
    {
      "inputs": [],
      "name": "pauseAllContracts",
      "outputs": [],
      "stateMutability": "nonpayable",
      "type": "function"
    },
    {
      "inputs": [
        {
          "internalType": "address",
          "name": "contractAddress",
          "type": "address"
        }
      ],
      "name": "pauseContract",
      "outputs": [],
      "stateMutability": "nonpayable",
      "type": "function"
    },
    {
      "inputs": [],
      "name": "paused",
      "outputs": [
        {
          "internalType": "bool",
          "name": "",
          "type": "bool"
        }
      ],
      "stateMutability": "view",
      "type": "function"
    },
    {
      "inputs": [
        {
          "internalType": "address",
          "name": "target",
          "type": "address"
        },
        {
          "internalType": "bytes",
          "name": "data",
          "type": "bytes"
        }
      ],
      "name": "proposeMultiSigOperation",
      "outputs": [
        {
          "internalType": "bytes32",
          "name": "proposalId",
          "type": "bytes32"
        }
      ],
      "stateMutability": "nonpayable",
      "type": "function"
    },
    {
      "inputs": [
        {
          "internalType": "address",
          "name": "contractAddress",
          "type": "address"
        },
        {
          "internalType": "enum IFluxAccessHub.ContractType",
          "name": "contractType",
          "type": "uint8"
        }
      ],
      "name": "registerContract",
      "outputs": [],
      "stateMutability": "nonpayable",
      "type": "function"
    },
    {
      "inputs": [
        {
          "internalType": "bytes32",
          "name": "role",
          "type": "bytes32"
        },
        {
          "internalType": "address",
          "name": "callerConfirmation",
          "type": "address"
        }
      ],
      "name": "renounceRole",
      "outputs": [],
      "stateMutability": "nonpayable",
      "type": "function"
    },
    {
      "inputs": [
        {
          "internalType": "bytes32",
          "name": "role",
          "type": "bytes32"
        }
      ],
      "name": "renounceRole",
      "outputs": [],
      "stateMutability": "nonpayable",
      "type": "function"
    },
    {
      "inputs": [
        {
          "internalType": "uint256",
          "name": "delegationId",
          "type": "uint256"
        }
      ],
      "name": "revokeDelegation",
      "outputs": [],
      "stateMutability": "nonpayable",
      "type": "function"
    },
    {
      "inputs": [
        {
          "internalType": "bytes32",
          "name": "role",
          "type": "bytes32"
        },
        {
          "internalType": "address",
          "name": "account",
          "type": "address"
        }
      ],
      "name": "revokeRole",
      "outputs": [],
      "stateMutability": "nonpayable",
      "type": "function"
    },
    {
      "inputs": [
        {
          "internalType": "bytes32[]",
          "name": "roles",
          "type": "bytes32[]"
        },
        {
          "internalType": "address",
          "name": "account",
          "type": "address"
        }
      ],
      "name": "revokeRoles",
      "outputs": [],
      "stateMutability": "nonpayable",
      "type": "function"
    },
    {
      "inputs": [
        {
          "internalType": "address",
          "name": "target",
          "type": "address"
        },
        {
          "internalType": "bytes",
          "name": "data",
          "type": "bytes"
        },
        {
          "internalType": "uint256",
          "name": "delay",
          "type": "uint256"
        }
      ],
      "name": "scheduleOperation",
      "outputs": [
        {
          "internalType": "bytes32",
          "name": "operationId",
          "type": "bytes32"
        }
      ],
      "stateMutability": "nonpayable",
      "type": "function"
    },
    {
      "inputs": [
        {
          "internalType": "enum IFluxAccessHub.EmergencyLevel",
          "name": "level",
          "type": "uint8"
        }
      ],
      "name": "setEmergencyLevel",
      "outputs": [],
      "stateMutability": "nonpayable",
      "type": "function"
    },
    {
      "inputs": [
        {
          "internalType": "uint256",
          "name": "requiredSignatures",
          "type": "uint256"
        },
        {
          "internalType": "address[]",
          "name": "signers",
          "type": "address[]"
        }
      ],
      "name": "setMultiSigConfig",
      "outputs": [],
      "stateMutability": "nonpayable",
      "type": "function"
    },
    {
      "inputs": [
        {
          "internalType": "bytes4",
          "name": "interfaceId",
          "type": "bytes4"
        }
      ],
      "name": "supportsInterface",
      "outputs": [
        {
          "internalType": "bool",
          "name": "",
          "type": "bool"
        }
      ],
      "stateMutability": "view",
      "type": "function"
    },
    {
      "inputs": [],
      "name": "unpauseAllContracts",
      "outputs": [],
      "stateMutability": "nonpayable",
      "type": "function"
    },
    {
      "inputs": [
        {
          "internalType": "address",
          "name": "contractAddress",
          "type": "address"
        }
      ],
      "name": "unpauseContract",
      "outputs": [],
      "stateMutability": "nonpayable",
      "type": "function"
    },
    {
      "inputs": [
        {
          "internalType": "address",
          "name": "oldContract",
          "type": "address"
        },
        {
          "internalType": "address",
          "name": "newContract",
          "type": "address"
        }
      ],
      "name": "updateContract",
      "outputs": [],
      "stateMutability": "nonpayable",
      "type": "function"
    }
  ],
  "bytecode": "0x60806040523480156200001157600080fd5b50600160025562000032600080516020620041108339815191528062000152565b6200005c600080516020620041308339815191526000805160206200411083398151915262000152565b620000977f97667070c54ef182b0f5858b034beac1b6f3089aa2d3188bb1e8929f4fa9b9296000805160206200413083398151915262000152565b620000c1600080516020620040f08339815191526000805160206200411083398151915262000152565b620000fc7f71840dc4906352362b0cdaf79870196c8e42acafade72d5d5a6d59291253ceb16000805160206200411083398151915262000152565b620001096000336200019d565b506200012560008051602062004110833981519152336200019d565b5062000141600080516020620040f0833981519152336200019d565b506003805460ff191690556200044d565b600082815260208190526040808220600101805490849055905190918391839186917fbd79b86ffe0ab8e8776151514217cd7cacd52c909f66475c3af44e129f0b00ff9190a4505050565b6000620001ab838362000236565b6200022c576000838152602081815260408083206001600160a01b03861684529091529020805460ff19166001179055620001e33390565b6001600160a01b0316826001600160a01b0316847f2f8788117e7eff1d82e926ec794901d17c78024a50270940304540a733656f0d60405160405180910390a450600162000230565b5060005b92915050565b6000828152602081815260408083206001600160a01b038516845290915281205460ff1615620002695750600162000230565b6001600160a01b0382166000908152600c602052604081206200028c90620003c3565b905060005b8151811015620003b8576000600b6000848481518110620002b657620002b662000437565b6020908102919091018101518252818101929092526040908101600020815160c08101835281546001600160a01b03908116825260018301541681850152600282015481840152600382015460608201526004820180548451818702810187019095528085529194929360808601939092908301828280156200035957602002820191906000526020600020905b81548152602001906001019080831162000344575b50505091835250506005919091015460ff16151560209091015260a081015190915080156200038b5750858160400151145b80156200039b5750806060015142105b15620003ae576001935050505062000230565b5060010162000291565b506000949350505050565b60606000620003d283620003d9565b9392505050565b6060816000018054806020026020016040519081016040528092919081815260200182805480156200042b57602002820191906000526020600020905b81548152602001906001019080831162000416575b50505050509050919050565b634e487b7160e01b600052603260045260246000fd5b613c93806200045d6000396000f3fe608060405234801561001057600080fd5b506004361061035c5760003560e01c806393ae290f116101d3578063cacebadc11610104578063df287dd6116100a2578063f36c8f5c1161007c578063f36c8f5c146107ac578063f5b541a6146107d3578063fcd7627e146107fa578063fec63af21461080d57600080fd5b8063df287dd61461077b578063e8793b201461078e578063ee33d19c1461079957600080fd5b8063d547741f116100de578063d547741f1461072f578063d747560c14610742578063d97b9bd514610755578063de314f481461076857600080fd5b8063cacebadc146106dc578063cbaf2fa7146106fc578063cd481e511461070f57600080fd5b8063adb99c8a11610171578063bd3d425d1161014b578063bd3d425d14610690578063beadf957146106a3578063ca15c873146106b6578063ca1bbf2c146106c957600080fd5b8063adb99c8a14610662578063b3e90c3814610675578063b928766a1461067d57600080fd5b8063a618dfbd116101ad578063a618dfbd1461060f578063a6fa0cb414610629578063a94ac5ec1461063c578063ac376ee71461064f57600080fd5b806393ae290f146105e1578063988360a3146105f4578063a217fddf1461060757600080fd5b806351aacf3d116102ad57806375b238fc1161024b57806383c04aa21161022557806383c04aa21461057d5780638bb9c5bf146105905780639010d07c146105a357806391d14854146105ce57600080fd5b806375b238fc146105405780637958004c146105555780637c205cc41461057557600080fd5b80635c975abb116102875780635c975abb146104dc57806364e9d732146104e757806368ca78f91461051a5780636fcc91461461052d57600080fd5b806351aacf3d146104a1578063568d9c2e146104b4578063584b153e146104c957600080fd5b8063248a9ca31161031a57806331a76535116102f457806331a765351461045357806336568abe146104665780634460bdd6146104795780634d8a16a11461048e57600080fd5b8063248a9ca3146103fd5780632f2ff15d1461042057806330d78afe1461043357600080fd5b80626366391461036157806301ffc9a7146103765780630dd357011461039e57806313bc9f20146103be578063169070eb146103d157806320df4359146103e8575b600080fd5b61037461036f3660046131a2565b610817565b005b6103896103843660046131d5565b610a5c565b60405190151581526020015b60405180910390f35b6103b16103ac3660046131ff565b610a93565b6040516103959190613218565b6103896103cc3660046131ff565b610b79565b6103da610e1081565b604051908152602001610395565b6103da600080516020613bfe83398151915281565b6103da61040b3660046131ff565b60009081526020819052604090206001015490565b61037461042e3660046132af565b610cb5565b6104466104413660046132d2565b610cff565b6040516103959190613332565b610374610461366004613345565b610d3e565b6103746104743660046132af565b610dca565b6103da600080516020613c1e83398151915281565b6103da61049c3660046133a9565b610dfd565b6103896104af3660046133fc565b610ead565b6104bc610eee565b6040516103959190613438565b6103896104d73660046131ff565b610f90565b60015460ff16610389565b6103896104f5366004613345565b6001600160a01b0316600090815260066020526040902054600160a81b900460ff1690565b6103896105283660046134ac565b6110b9565b61038961053b3660046134ac565b611109565b6103da600080516020613c3e83398151915281565b6105686105633660046131ff565b61114b565b6040516103959190613516565b610374611273565b61038961058b3660046131ff565b61139a565b61037461059e3660046131ff565b611465565b6105b66105b136600461359c565b6114a5565b6040516001600160a01b039091168152602001610395565b6103896105dc3660046132af565b6114bd565b6103746105ef3660046135be565b611630565b61037461060236600461362a565b611714565b6103da600081565b60035461061c9060ff1681565b604051610395919061369f565b6104466106373660046131ff565b61174f565b61037461064a3660046136ad565b611769565b61037461065d3660046136e0565b61184b565b610374610670366004613345565b6118ee565b610374611a03565b61037461068b3660046131ff565b611b85565b61037461069e3660046131ff565b611c68565b6103746106b13660046131ff565b611dae565b6103da6106c43660046131ff565b611efd565b6103da6106d7366004613701565b611f14565b6106ef6106ea366004613345565b612103565b604051610395919061375b565b61037461070a3660046131ff565b612127565b61072261071d366004613345565b6123ca565b60405161039591906137af565b61037461073d3660046132af565b61247e565b6103da6107503660046137fa565b6124c3565b610374610763366004613345565b6127b2565b6106ef610776366004613345565b6128c9565b6103746107893660046131ff565b6128ed565b60035460ff1661061c565b6103746107a7366004613862565b612946565b6103da7f71840dc4906352362b0cdaf79870196c8e42acafade72d5d5a6d59291253ceb181565b6103da7f97667070c54ef182b0f5858b034beac1b6f3089aa2d3188bb1e8929f4fa9b92981565b61037461080836600461362a565b612c32565b6103da62278d0081565b600080516020613c3e83398151915261082f81612c67565b6001600160a01b03831661088a5760405162461bcd60e51b815260206004820152601860248201527f496e76616c696420636f6e74726163742061646472657373000000000000000060448201526064015b60405180910390fd5b610895600884612c71565b156108e25760405162461bcd60e51b815260206004820152601b60248201527f436f6e747261637420616c7265616479207265676973746572656400000000006044820152606401610881565b6040518060a00160405280846001600160a01b0316815260200183600581111561090e5761090e613675565b815260016020808301829052604080840192909252426060909301929092526001600160a01b03808716600090815260068452919091208351815492166001600160a01b0319831681178255928401519092909183916001600160a81b031990911617600160a01b83600581111561098857610988613675565b021790555060408201518154901515600160a81b0260ff60a81b19909116178155606082015160018201556080909101516002909101556109ca600884612c93565b50610a1283600760008560058111156109e5576109e5613675565b60058111156109f6576109f6613675565b8152602001908152602001600020612c9390919063ffffffff16565b50826001600160a01b03167f0fe1ee3e57a80e1f7aca1c2492532983abf8671b10fdf173e93e18f0e477e715836001604051610a4f92919061388c565b60405180910390a2505050565b60006001600160e01b03198216637965db0b60e01b1480610a8d57506301ffc9a760e01b6001600160e01b03198316145b92915050565b6040805160c0810182526000808252602082018190529181018290526060808201839052608082015260a08101919091526000828152600b6020908152604091829020825160c08101845281546001600160a01b03908116825260018301541681840152600282015481850152600382015460608201526004820180548551818602810186019096528086529194929360808601939290830182828015610b5957602002820191906000526020600020905b815481526020019060010190808311610b45575b50505091835250506005919091015460ff16151560209091015292915050565b6000818152600a60209081526040808320815160c0810183528154815260018201546001600160a01b03169381019390935260028101805485949384019190610bc1906138a7565b80601f0160208091040260200160405190810160405280929190818152602001828054610bed906138a7565b8015610c3a5780601f10610c0f57610100808354040283529160200191610c3a565b820191906000526020600020905b815481529060010190602001808311610c1d57829003601f168201915b5050509183525050600382015460208083019190915260049092015460ff808216151560408401526101009091041615156060909101528101519091506001600160a01b031615801590610c9057508060800151155b8015610c9e57508060a00151155b8015610cae575080606001514210155b9392505050565b610cbf8282612ca8565b6000828152601260205260409020610cd79082612c93565b506001600160a01b0381166000908152601360205260409020610cfa9083612ccd565b505050565b6060610a8d60076000846005811115610d1a57610d1a613675565b6005811115610d2b57610d2b613675565b8152602001908152602001600020612cd9565b600080516020613c3e833981519152610d5681612c67565b610d61600883612c71565b610d7d5760405162461bcd60e51b8152600401610881906138e1565b6001600160a01b038216600081815260066020526040808220805460ff60a81b19169055517fe0fd9aa6ce4b6335c1ccab1cd908c7c98bfd522946ded92319f91191ef89c0449190a25050565b6001600160a01b0381163314610df35760405163334bd91960e11b815260040160405180910390fd5b610cfa8282612ce6565b6000610e0833612d59565b610e435760405162461bcd60e51b815260206004820152600c60248201526b2737ba10309039b4b3b732b960a11b6044820152606401610881565b83838342604051602001610e5a9493929190613941565b60408051601f1981840301815291815281516020928301206000818152601084528281203382528452828120805460ff191660019081179091558282526011909452919091209190915590509392505050565b6001600160a01b038116600090815260066020526040812054600160a81b900460ff16610edc57506000610cae565b610ee683856114bd565b949350505050565b610f1260405180606001604052806000815260200160008152602001606081525090565b60408051606081018252600d80548252600e54602080840191909152600f80548551818402810184018752818152949593949386019392830182828015610f8257602002820191906000526020600020905b81546001600160a01b03168152600190910190602001808311610f64575b505050505081525050905090565b6000818152600a60209081526040808320815160c0810183528154815260018201546001600160a01b03169381019390935260028101805485949384019190610fd8906138a7565b80601f0160208091040260200160405190810160405280929190818152602001828054611004906138a7565b80156110515780601f1061102657610100808354040283529160200191611051565b820191906000526020600020905b81548152906001019060200180831161103457829003601f168201915b5050509183525050600382015460208083019190915260049092015460ff808216151560408401526101009091041615156060909101528101519091506001600160a01b0316158015906110a757508060800151155b8015610cae575060a001511592915050565b6000805b828110156110fe576110e78484838181106110da576110da613977565b90506020020135866114bd565b156110f6576001915050610cae565b6001016110bd565b506000949350505050565b6000805b828110156111405761112a8484838181106110da576110da613977565b611138576000915050610cae565b60010161110d565b506001949350505050565b6040805160c0808201835260008083526020808401829052606084860181905284018290526080840182905260a08401829052858252600a815290849020845192830185528054835260018101546001600160a01b0316918301919091526002810180549394929391928401916111c1906138a7565b80601f01602080910402602001604051908101604052809291908181526020018280546111ed906138a7565b801561123a5780601f1061120f5761010080835404028352916020019161123a565b820191906000526020600020905b81548152906001019060200180831161121d57829003601f168201915b50505091835250506003820154602082015260049091015460ff8082161515604084015261010090910416151560609091015292915050565b600080516020613bfe83398151915261128b81612c67565b60006112976008612cd9565b905060005b8151811015610cfa57600660008383815181106112bb576112bb613977565b6020908102919091018101516001600160a01b0316825281019190915260400160002054600160a81b900460ff161561139257600082828151811061130257611302613977565b602090810291909101810151604080516004815260248101825292830180516001600160e01b0316638456cb5960e01b179052516001600160a01b039091169161134b9161398d565b6000604051808303816000865af19150503d8060008114611388576040519150601f19603f3d011682016040523d82523d6000602084013e61138d565b606091505b505050505b60010161129c565b6000818152600b60209081526040808320815160c08101835281546001600160a01b03908116825260018301541681850152600282015481840152600382015460608201526004820180548451818702810187019095528085528695929460808601939092919083018282801561143057602002820191906000526020600020905b81548152602001906001019080831161141c575b50505091835250506005919091015460ff16151560209091015260a08101519091508015610cae575060600151421092915050565b61146f8133610dca565b60008181526012602052604090206114879033612dbb565b503360009081526013602052604090206114a19082612dd0565b5050565b6000828152601260205260408120610cae9083612ddc565b6000828152602081815260408083206001600160a01b038516845290915281205460ff16156114ee57506001610a8d565b6001600160a01b0382166000908152600c6020526040812061150f90612cd9565b905060005b81518110156110fe576000600b600084848151811061153557611535613977565b6020908102919091018101518252818101929092526040908101600020815160c08101835281546001600160a01b03908116825260018301541681850152600282015481840152600382015460608201526004820180548451818702810187019095528085529194929360808601939092908301828280156115d657602002820191906000526020600020905b8154815260200190600101908083116115c2575b50505091835250506005919091015460ff16151560209091015260a081015190915080156116075750858160400151145b80156116165750806060015142105b156116275760019350505050610a8d565b50600101611514565b600080516020613bfe83398151915261164881612c67565b60026003805460ff169081111561166157611661613675565b148061168157506003805460ff168181111561167f5761167f613675565b145b6116c65760405162461bcd60e51b81526020600482015260166024820152754e6f7420696e20656d657267656e637920737461746560501b6044820152606401610881565b336001600160a01b03167f66d704cae6b5c6c26c2f2fd70a2b483e1ca0c872505f6688e971a95f6ef3001d8686868660405161170594939291906139a9565b60405180910390a25050505050565b60005b828110156117495761174184848381811061173457611734613977565b905060200201358361247e565b600101611717565b50505050565b6000818152601260205260409020606090610a8d90612cd9565b600080516020613c1e83398151915261178181612c67565b6000841180156117915750818411155b6117ce5760405162461bcd60e51b815260206004820152600e60248201526d496e76616c696420636f6e66696760901b6044820152606401610881565b604051806060016040528085815260200162015180815260200184848080602002602001604051908101604052809392919081815260200183836020028082843760009201919091525050509152508051600d908155602080830151600e556040830151805161184292600f9201906130c2565b50505050505050565b600080516020613bfe83398151915261186381612c67565b6003805460ff811691849160ff19166001838381111561188557611885613675565b0217905550336001600160a01b03167f7a10c9ed3090696a99a4d39b5c9b769c28708da41ae2a91a0dca3b16e26d83cd82856040516118c59291906139db565b60405180910390a260038360038111156118e1576118e1613675565b03610cfa57610cfa611273565b7f97667070c54ef182b0f5858b034beac1b6f3089aa2d3188bb1e8929f4fa9b92961191881612c67565b611923600883612c71565b61193f5760405162461bcd60e51b8152600401610881906138e1565b60408051600481526024810182526020810180516001600160e01b0316638456cb5960e01b17905290516000916001600160a01b03851691611981919061398d565b6000604051808303816000865af19150503d80600081146119be576040519150601f19603f3d011682016040523d82523d6000602084013e6119c3565b606091505b5050905080610cfa5760405162461bcd60e51b815260206004820152600c60248201526b14185d5cd94819985a5b195960a21b6044820152606401610881565b600080516020613bfe833981519152611a1b81612c67565b60006003805460ff1690811115611a3457611a34613675565b14611a765760405162461bcd60e51b81526020600482015260126024820152715374696c6c20696e20656d657267656e637960701b6044820152606401610881565b6000611a826008612cd9565b905060005b8151811015610cfa5760066000838381518110611aa657611aa6613977565b6020908102919091018101516001600160a01b0316825281019190915260400160002054600160a81b900460ff1615611b7d576000828281518110611aed57611aed613977565b602090810291909101810151604080516004815260248101825292830180516001600160e01b0316631fa5d41d60e11b179052516001600160a01b0390911691611b369161398d565b6000604051808303816000865af19150503d8060008114611b73576040519150601f19603f3d011682016040523d82523d6000602084013e611b78565b606091505b505050505b600101611a87565b611b8e33612d59565b611bc95760405162461bcd60e51b815260206004820152600c60248201526b2737ba10309039b4b3b732b960a11b6044820152606401610881565b600081815260106020908152604080832033845290915290205460ff1615611c265760405162461bcd60e51b815260206004820152601060248201526f105b1c9958591e48185c1c1c9bdd995960821b6044820152606401610881565b60008181526010602090815260408083203384528252808320805460ff1916600117905583835260119091528120805491611c6083613a0c565b919050555050565b6000818152600b6020526040902080546001600160a01b0316331480611ca15750611ca1600080516020613c3e833981519152336114bd565b611cdc5760405162461bcd60e51b815260206004820152600c60248201526b155b985d5d1a1bdc9a5e995960a21b6044820152606401610881565b600581015460ff16611d285760405162461bcd60e51b815260206004820152601560248201527444656c65676174696f6e206e6f742061637469766560581b6044820152606401610881565b60058101805460ff1916905560018101546001600160a01b03166000908152600c60205260409020611d5a9083612dd0565b506001810154815460028301546040519081526001600160a01b0392831692909116907f6891f9fab4181994177e2e117b2e265cef67aacf34f10d57bd136753057c44f39060200160405180910390a35050565b600080516020613c1e833981519152611dc681612c67565b6000828152600a6020526040902060018101546001600160a01b0316611e245760405162461bcd60e51b815260206004820152601360248201527213dc195c985d1a5bdb881b9bdd08199bdd5b99606a1b6044820152606401610881565b600481015460ff1615611e6c5760405162461bcd60e51b815260206004820152601060248201526f105b1c9958591e48195e1958dd5d195960821b6044820152606401610881565b6004810154610100900460ff1615611eba5760405162461bcd60e51b8152602060048201526011602482015270105b1c9958591e4818d85b98d95b1b1959607a1b6044820152606401610881565b60048101805461ff001916610100179055604051339084907f55e0dd61c29aac6fc36807628300ad3e3ec68655ae76ae4002f7fb101496fa9f90600090a3505050565b6000818152601260205260408120610a8d90612de8565b6000600080516020613c3e833981519152611f2e81612c67565b610e10831015611f725760405162461bcd60e51b815260206004820152600f60248201526e11195b185e481d1bdbc81cda1bdc9d608a1b6044820152606401610881565b600580548791879187916000611f8783613a0c565b91905055604051602001611f9e9493929190613941565b6040516020818303038152906040528051906020012091506040518060c00160405280838152602001876001600160a01b0316815260200186868080601f01602080910402602001604051908101604052809392919081815260200183838082843760009201919091525050509082525060200161201c8542613a25565b8152600060208083018290526040928301829052858252600a81529082902083518155908301516001820180546001600160a01b0319166001600160a01b039092169190911790559082015160028201906120779082613a9e565b506060820151600382015560808201516004909101805460a09093015115156101000261ff00199215159290921661ffff19909316929092171790556001600160a01b038616827f991e9b0e2f98c3989f4541ce66e9aca44e8bfb1c75bcf862d80f800369e6c6a36120e98642613a25565b60405190815260200160405180910390a350949350505050565b6001600160a01b0381166000908152601360205260409020606090610a8d90612cd9565b61212f612df2565b6000818152600a6020526040902060018101546001600160a01b031661218d5760405162461bcd60e51b815260206004820152601360248201527213dc195c985d1a5bdb881b9bdd08199bdd5b99606a1b6044820152606401610881565b600481015460ff16156121d55760405162461bcd60e51b815260206004820152601060248201526f105b1c9958591e48195e1958dd5d195960821b6044820152606401610881565b6004810154610100900460ff16156122255760405162461bcd60e51b815260206004820152601360248201527213dc195c985d1a5bdb8818d85b98d95b1b1959606a1b6044820152606401610881565b80600301544210156122655760405162461bcd60e51b8152602060048201526009602482015268546f6f206561726c7960b81b6044820152606401610881565b61227d600080516020613c3e833981519152336114bd565b8061229b575061229b600080516020613c1e833981519152336114bd565b6122d65760405162461bcd60e51b815260206004820152600c60248201526b155b985d5d1a1bdc9a5e995960a21b6044820152606401610881565b60048101805460ff191660019081179091558101546040516000916001600160a01b031690612309906002850190613b5e565b6000604051808303816000865af19150503d8060008114612346576040519150601f19603f3d011682016040523d82523d6000602084013e61234b565b606091505b505090508061238f5760405162461bcd60e51b815260206004820152601060248201526f13dc195c985d1a5bdb8819985a5b195960821b6044820152606401610881565b604051339084907e1d1d6b8d664ddc069841e54d003c4a632a7392aa33ef7f83806380c2bc687390600090a350506123c76001600255565b50565b6040805160a080820183526000808352602080840182905283850182905260608401829052608084018290526001600160a01b038681168352600682529185902085519384019095528454918216835292939192830190600160a01b900460ff16600581111561243c5761243c613675565b600581111561244d5761244d613675565b81528154600160a81b900460ff16151560208201526001820154604082015260029091015460609091015292915050565b6124888282612e1a565b60008281526012602052604090206124a09082612dbb565b506001600160a01b0381166000908152601360205260409020610cfa9083612dd0565b60006124cf85336114bd565b6125275760405162461bcd60e51b815260206004820152602360248201527f43616e6e6f742064656c656761746520726f6c6520796f7520646f6e2774206860448201526261766560e81b6064820152608401610881565b6001600160a01b0386166125715760405162461bcd60e51b8152602060048201526011602482015270496e76616c69642064656c65676174656560781b6044820152606401610881565b62278d008411156125b85760405162461bcd60e51b81526020600482015260116024820152704475726174696f6e20746f6f206c6f6e6760781b6044820152606401610881565b600080516020613c1e83398151915285141580156125d557508415155b6126215760405162461bcd60e51b815260206004820152601b60248201527f43616e6e6f742064656c65676174652061646d696e20726f6c657300000000006044820152606401610881565b6004805490600061263183613a0c565b909155506040805160c0810182523381526001600160a01b0389166020820152908101879052909150606081016126688642613a25565b81526020018484808060200260200160405190810160405280939291908181526020018383602002808284376000920182905250938552505060016020938401819052858352600b8452604092839020855181546001600160a01b039182166001600160a01b031991821617835587870151938301805494909216931692909217909155918401516002830155506060830151600382015560808301518051919261271b92600485019290910190613127565b5060a091909101516005909101805460ff19169115159190911790556001600160a01b0386166000908152600c602052604090206127599082612ccd565b506001600160a01b038616337fb94ca423709a351f789a9c764a370660ed8c52e6e0607aeb0a7a0169518500c3876127918842613a25565b6040805192835260208301919091520160405180910390a395945050505050565b7f97667070c54ef182b0f5858b034beac1b6f3089aa2d3188bb1e8929f4fa9b9296127dc81612c67565b6127e7600883612c71565b6128035760405162461bcd60e51b8152600401610881906138e1565b60408051600481526024810182526020810180516001600160e01b0316631fa5d41d60e11b17905290516000916001600160a01b03851691612845919061398d565b6000604051808303816000865af19150503d8060008114612882576040519150601f19603f3d011682016040523d82523d6000602084013e612887565b606091505b5050905080610cfa5760405162461bcd60e51b815260206004820152600e60248201526d155b9c185d5cd94819985a5b195960921b6044820152606401610881565b6001600160a01b0381166000908152600c60205260409020606090610a8d90612cd9565b600d5460008281526011602052604090205410156123c75760405162461bcd60e51b8152602060048201526016602482015275496e73756666696369656e7420617070726f76616c7360501b6044820152606401610881565b600080516020613c3e83398151915261295e81612c67565b612969600884612c71565b6129b55760405162461bcd60e51b815260206004820152601b60248201527f4f6c6420636f6e7472616374206e6f74207265676973746572656400000000006044820152606401610881565b6129c0600883612c71565b15612a0d5760405162461bcd60e51b815260206004820152601f60248201527f4e657720636f6e747261637420616c72656164792072656769737465726564006044820152606401610881565b6001600160a01b038381166000908152600660209081526040808320815160a08101909252805494851682529293909291830190600160a01b900460ff166005811115612a5c57612a5c613675565b6005811115612a6d57612a6d613675565b81528154600160a81b900460ff16151560208083019190915260018301546040808401919091526002909301546060909201919091526001600160a01b03878116600090815260068352839020805460ff60a81b19169055825160a0810190935286168252828101519293509091908201906005811115612af057612af0613675565b815260200160011515815260200182606001516001612b0f9190613a25565b8152426020918201526001600160a01b03808616600090815260068352604090208351815492166001600160a01b0319831681178255928401519092909183916001600160a81b031990911617600160a01b836005811115612b7357612b73613675565b021790555060408201518154901515600160a81b0260ff60a81b1990911617815560608201516001820155608090910151600290910155612bb5600884612c93565b50612bd48360076000846020015160058111156109e5576109e5613675565b50826001600160a01b0316846001600160a01b03167f95b3377e475434fff4b527743f79205fc694d9d2f1383dc0945f103a74eabb4583606001516001612c1b9190613a25565b60405190815260200160405180910390a350505050565b60005b8281101561174957612c5f848483818110612c5257612c52613977565b9050602002013583610cb5565b600101612c35565b6123c78133612e3f565b6001600160a01b03811660009081526001830160205260408120541515610cae565b6000610cae836001600160a01b038416612e78565b600082815260208190526040902060010154612cc381612c67565b6117498383612ebf565b6000610cae8383612e78565b60606000610cae83612f49565b6000612cf283836114bd565b15612d51576000838152602081815260408083206001600160a01b0386168085529252808320805460ff1916905551339286917ff6391f5c32d9c69d2a47ea670b442974b53935d1edc7fd64eb21e047a839171b9190a4506001610a8d565b506000610a8d565b6000805b600f54811015612db257826001600160a01b0316600d6002018281548110612d8757612d87613977565b6000918252602090912001546001600160a01b031603612daa5750600192915050565b600101612d5d565b50600092915050565b6000610cae836001600160a01b038416612fa5565b6000610cae8383612fa5565b6000610cae8383613098565b6000610a8d825490565b6002805403612e1457604051633ee5aeb560e01b815260040160405180910390fd5b60028055565b600082815260208190526040902060010154612e3581612c67565b6117498383612ce6565b612e4982826114bd565b6114a15760405163e2517d3f60e01b81526001600160a01b038216600482015260248101839052604401610881565b6000818152600183016020526040812054612d5157508154600181810184556000848152602080822090930184905584548482528286019093526040902091909155610a8d565b6000612ecb83836114bd565b612d51576000838152602081815260408083206001600160a01b03861684529091529020805460ff19166001179055612f013390565b6001600160a01b0316826001600160a01b0316847f2f8788117e7eff1d82e926ec794901d17c78024a50270940304540a733656f0d60405160405180910390a4506001610a8d565b606081600001805480602002602001604051908101604052809291908181526020018280548015612f9957602002820191906000526020600020905b815481526020019060010190808311612f85575b50505050509050919050565b6000818152600183016020526040812054801561308e576000612fc9600183613bd4565b8554909150600090612fdd90600190613bd4565b9050808214613042576000866000018281548110612ffd57612ffd613977565b906000526020600020015490508087600001848154811061302057613020613977565b6000918252602080832090910192909255918252600188019052604090208390555b855486908061305357613053613be7565b600190038181906000526020600020016000905590558560010160008681526020019081526020016000206000905560019350505050610a8d565b6000915050610a8d565b60008260000182815481106130af576130af613977565b9060005260206000200154905092915050565b828054828255906000526020600020908101928215613117579160200282015b8281111561311757825182546001600160a01b0319166001600160a01b039091161782556020909201916001909101906130e2565b50613123929150613162565b5090565b828054828255906000526020600020908101928215613117579160200282015b82811115613117578251825591602001919060010190613147565b5b808211156131235760008155600101613163565b80356001600160a01b038116811461318e57600080fd5b919050565b80356006811061318e57600080fd5b600080604083850312156131b557600080fd5b6131be83613177565b91506131cc60208401613193565b90509250929050565b6000602082840312156131e757600080fd5b81356001600160e01b031981168114610cae57600080fd5b60006020828403121561321157600080fd5b5035919050565b6000602080835260e0830160018060a01b0380865116838601528083870151166040860152506040850151606085015260608501516080850152608085015160c060a0860152818151808452610100870191508483019350600092505b808310156132955783518252928401926001929092019190840190613275565b5060a087015180151560c088015293509695505050505050565b600080604083850312156132c257600080fd5b823591506131cc60208401613177565b6000602082840312156132e457600080fd5b610cae82613193565b60008151808452602080850194506020840160005b838110156133275781516001600160a01b031687529582019590820190600101613302565b509495945050505050565b602081526000610cae60208301846132ed565b60006020828403121561335757600080fd5b610cae82613177565b60008083601f84011261337257600080fd5b50813567ffffffffffffffff81111561338a57600080fd5b6020830191508360208285010111156133a257600080fd5b9250929050565b6000806000604084860312156133be57600080fd5b6133c784613177565b9250602084013567ffffffffffffffff8111156133e357600080fd5b6133ef86828701613360565b9497909650939450505050565b60008060006060848603121561341157600080fd5b61341a84613177565b92506020840135915061342f60408501613177565b90509250925092565b60208152815160208201526020820151604082015260006040830151606080840152610ee660808401826132ed565b60008083601f84011261347957600080fd5b50813567ffffffffffffffff81111561349157600080fd5b6020830191508360208260051b85010111156133a257600080fd5b6000806000604084860312156134c157600080fd5b6134ca84613177565b9250602084013567ffffffffffffffff8111156134e657600080fd5b6133ef86828701613467565b60005b8381101561350d5781810151838201526020016134f5565b50506000910152565b602081528151602082015260018060a01b0360208301511660408201526000604083015160c0606084015280518060e085015261010061355c82828701602086016134f2565b606086015160808601526080860151925061357b60a086018415159052565b60a09590950151151560c0850152601f01601f191690920190920192915050565b600080604083850312156135af57600080fd5b50508035926020909101359150565b600080600080604085870312156135d457600080fd5b843567ffffffffffffffff808211156135ec57600080fd5b6135f888838901613360565b9096509450602087013591508082111561361157600080fd5b5061361e87828801613360565b95989497509550505050565b60008060006040848603121561363f57600080fd5b833567ffffffffffffffff81111561365657600080fd5b61366286828701613467565b909450925061342f905060208501613177565b634e487b7160e01b600052602160045260246000fd5b6004811061369b5761369b613675565b9052565b60208101610a8d828461368b565b6000806000604084860312156136c257600080fd5b83359250602084013567ffffffffffffffff8111156134e657600080fd5b6000602082840312156136f257600080fd5b813560048110610cae57600080fd5b6000806000806060858703121561371757600080fd5b61372085613177565b9350602085013567ffffffffffffffff81111561373c57600080fd5b61374887828801613360565b9598909750949560400135949350505050565b6020808252825182820181905260009190848201906040850190845b8181101561379357835183529284019291840191600101613777565b50909695505050505050565b6006811061369b5761369b613675565b81516001600160a01b0316815260208083015160a08301916137d39084018261379f565b50604083015115156040830152606083015160608301526080830151608083015292915050565b60008060008060006080868803121561381257600080fd5b61381b86613177565b94506020860135935060408601359250606086013567ffffffffffffffff81111561384557600080fd5b61385188828901613467565b969995985093965092949392505050565b6000806040838503121561387557600080fd5b61387e83613177565b91506131cc60208401613177565b6040810161389a828561379f565b8260208301529392505050565b600181811c908216806138bb57607f821691505b6020821081036138db57634e487b7160e01b600052602260045260246000fd5b50919050565b60208082526017908201527f436f6e7472616374206e6f742072656769737465726564000000000000000000604082015260600190565b81835281816020850137506000828201602090810191909152601f909101601f19169091010190565b6001600160a01b03851681526060602082018190526000906139669083018587613918565b905082604083015295945050505050565b634e487b7160e01b600052603260045260246000fd5b6000825161399f8184602087016134f2565b9190910192915050565b6040815260006139bd604083018688613918565b82810360208401526139d0818587613918565b979650505050505050565b604081016139e9828561368b565b610cae602083018461368b565b634e487b7160e01b600052601160045260246000fd5b600060018201613a1e57613a1e6139f6565b5060010190565b80820180821115610a8d57610a8d6139f6565b634e487b7160e01b600052604160045260246000fd5b601f821115610cfa576000816000526020600020601f850160051c81016020861015613a775750805b601f850160051c820191505b81811015613a9657828155600101613a83565b505050505050565b815167ffffffffffffffff811115613ab857613ab8613a38565b613acc81613ac684546138a7565b84613a4e565b602080601f831160018114613b015760008415613ae95750858301515b600019600386901b1c1916600185901b178555613a96565b600085815260208120601f198616915b82811015613b3057888601518255948401946001909101908401613b11565b5085821015613b4e5787850151600019600388901b60f8161c191681555b5050505050600190811b01905550565b6000808354613b6c816138a7565b60018281168015613b845760018114613b9957613bc8565b60ff1984168752821515830287019450613bc8565b8760005260208060002060005b85811015613bbf5781548a820152908401908201613ba6565b50505082870194505b50929695505050505050565b81810381811115610a8d57610a8d6139f6565b634e487b7160e01b600052603160045260246000fdfebf233dd2aafeb4d50879c4aa5c81e96d92f6e6945c906a58f9f2d1c1631b4b267613a25ecc738585a232ad50a301178f12b3ba8887d13e138b523c4269c47689a49807205ce4d355092ef5a8a18f56e8913cf4a201fbe287825b095693c21775a2646970667358221220964e70a3040e7732c86904675d7e58f6dce16f10e7ffb4509c084590a1f02f7b64736f6c63430008180033bf233dd2aafeb4d50879c4aa5c81e96d92f6e6945c906a58f9f2d1c1631b4b267613a25ecc738585a232ad50a301178f12b3ba8887d13e138b523c4269c47689a49807205ce4d355092ef5a8a18f56e8913cf4a201fbe287825b095693c21775",
  "linkReferences": {},
  "deployedLinkReferences": {}
}