{
    "_format": "hh-sol-artifact-1",
    "contractName": "FluxGameAsset",
    "sourceName": "contracts/FluxGameAsset.sol",
    "abi": [
        {
            "inputs": [
                {
                    "internalType": "string",
                    "name": "name_",
                    "type": "string"
                },
                {
                    "internalType": "string",
                    "name": "symbol_",
                    "type": "string"
                },
                {
                    "internalType": "string",
                    "name": "baseURI_",
                    "type": "string"
                }
            ],
            "stateMutability": "nonpayable",
            "type": "constructor"
        },
        {
            "inputs": [],
            "name": "AccessControlBadConfirmation",
            "type": "error"
        },
        {
            "inputs": [
                {
                    "internalType": "address",
                    "name": "account",
                    "type": "address"
                },
                {
                    "internalType": "bytes32",
                    "name": "neededRole",
                    "type": "bytes32"
                }
            ],
            "name": "AccessControlUnauthorizedAccount",
            "type": "error"
        },
        {
            "inputs": [
                {
                    "internalType": "uint256",
                    "name": "numerator",
                    "type": "uint256"
                },
                {
                    "internalType": "uint256",
                    "name": "denominator",
                    "type": "uint256"
                }
            ],
            "name": "ERC2981InvalidDefaultRoyalty",
            "type": "error"
        },
        {
            "inputs": [
                {
                    "internalType": "address",
                    "name": "receiver",
                    "type": "address"
                }
            ],
            "name": "ERC2981InvalidDefaultRoyaltyReceiver",
            "type": "error"
        },
        {
            "inputs": [
                {
                    "internalType": "uint256",
                    "name": "tokenId",
                    "type": "uint256"
                },
                {
                    "internalType": "uint256",
                    "name": "numerator",
                    "type": "uint256"
                },
                {
                    "internalType": "uint256",
                    "name": "denominator",
                    "type": "uint256"
                }
            ],
            "name": "ERC2981InvalidTokenRoyalty",
            "type": "error"
        },
        {
            "inputs": [
                {
                    "internalType": "uint256",
                    "name": "tokenId",
                    "type": "uint256"
                },
                {
                    "internalType": "address",
                    "name": "receiver",
                    "type": "address"
                }
            ],
            "name": "ERC2981InvalidTokenRoyaltyReceiver",
            "type": "error"
        },
        {
            "inputs": [],
            "name": "ERC721EnumerableForbiddenBatchMint",
            "type": "error"
        },
        {
            "inputs": [
                {
                    "internalType": "address",
                    "name": "sender",
                    "type": "address"
                },
                {
                    "internalType": "uint256",
                    "name": "tokenId",
                    "type": "uint256"
                },
                {
                    "internalType": "address",
                    "name": "owner",
                    "type": "address"
                }
            ],
            "name": "ERC721IncorrectOwner",
            "type": "error"
        },
        {
            "inputs": [
                {
                    "internalType": "address",
                    "name": "operator",
                    "type": "address"
                },
                {
                    "internalType": "uint256",
                    "name": "tokenId",
                    "type": "uint256"
                }
            ],
            "name": "ERC721InsufficientApproval",
            "type": "error"
        },
        {
            "inputs": [
                {
                    "internalType": "address",
                    "name": "approver",
                    "type": "address"
                }
            ],
            "name": "ERC721InvalidApprover",
            "type": "error"
        },
        {
            "inputs": [
                {
                    "internalType": "address",
                    "name": "operator",
                    "type": "address"
                }
            ],
            "name": "ERC721InvalidOperator",
            "type": "error"
        },
        {
            "inputs": [
                {
                    "internalType": "address",
                    "name": "owner",
                    "type": "address"
                }
            ],
            "name": "ERC721InvalidOwner",
            "type": "error"
        },
        {
            "inputs": [
                {
                    "internalType": "address",
                    "name": "receiver",
                    "type": "address"
                }
            ],
            "name": "ERC721InvalidReceiver",
            "type": "error"
        },
        {
            "inputs": [
                {
                    "internalType": "address",
                    "name": "sender",
                    "type": "address"
                }
            ],
            "name": "ERC721InvalidSender",
            "type": "error"
        },
        {
            "inputs": [
                {
                    "internalType": "uint256",
                    "name": "tokenId",
                    "type": "uint256"
                }
            ],
            "name": "ERC721NonexistentToken",
            "type": "error"
        },
        {
            "inputs": [
                {
                    "internalType": "address",
                    "name": "owner",
                    "type": "address"
                },
                {
                    "internalType": "uint256",
                    "name": "index",
                    "type": "uint256"
                }
            ],
            "name": "ERC721OutOfBoundsIndex",
            "type": "error"
        },
        {
            "inputs": [],
            "name": "ReentrancyGuardReentrantCall",
            "type": "error"
        },
        {
            "anonymous": false,
            "inputs": [
                {
                    "indexed": true,
                    "internalType": "address",
                    "name": "owner",
                    "type": "address"
                },
                {
                    "indexed": true,
                    "internalType": "address",
                    "name": "approved",
                    "type": "address"
                },
                {
                    "indexed": true,
                    "internalType": "uint256",
                    "name": "tokenId",
                    "type": "uint256"
                }
            ],
            "name": "Approval",
            "type": "event"
        },
        {
            "anonymous": false,
            "inputs": [
                {
                    "indexed": true,
                    "internalType": "address",
                    "name": "owner",
                    "type": "address"
                },
                {
                    "indexed": true,
                    "internalType": "address",
                    "name": "operator",
                    "type": "address"
                },
                {
                    "indexed": false,
                    "internalType": "bool",
                    "name": "approved",
                    "type": "bool"
                }
            ],
            "name": "ApprovalForAll",
            "type": "event"
        },
        {
            "anonymous": false,
            "inputs": [
                {
                    "indexed": true,
                    "internalType": "uint256",
                    "name": "tokenId",
                    "type": "uint256"
                },
                {
                    "indexed": true,
                    "internalType": "address",
                    "name": "to",
                    "type": "address"
                },
                {
                    "indexed": false,
                    "internalType": "enum IFluxGameAsset.ItemType",
                    "name": "itemType",
                    "type": "uint8"
                },
                {
                    "indexed": false,
                    "internalType": "uint8",
                    "name": "rarity",
                    "type": "uint8"
                }
            ],
            "name": "AssetMinted",
            "type": "event"
        },
        {
            "anonymous": false,
            "inputs": [
                {
                    "indexed": true,
                    "internalType": "uint256",
                    "name": "tokenId",
                    "type": "uint256"
                },
                {
                    "indexed": false,
                    "internalType": "uint8",
                    "name": "oldLevel",
                    "type": "uint8"
                },
                {
                    "indexed": false,
                    "internalType": "uint8",
                    "name": "newLevel",
                    "type": "uint8"
                }
            ],
            "name": "AssetUpgraded",
            "type": "event"
        },
        {
            "anonymous": false,
            "inputs": [
                {
                    "indexed": false,
                    "internalType": "uint256[]",
                    "name": "consumedTokenIds",
                    "type": "uint256[]"
                },
                {
                    "indexed": false,
                    "internalType": "uint256",
                    "name": "newTokenId",
                    "type": "uint256"
                },
                {
                    "indexed": true,
                    "internalType": "address",
                    "name": "owner",
                    "type": "address"
                }
            ],
            "name": "AssetsCombined",
            "type": "event"
        },
        {
            "anonymous": false,
            "inputs": [
                {
                    "indexed": false,
                    "internalType": "string",
                    "name": "newBaseURI",
                    "type": "string"
                }
            ],
            "name": "BaseURIUpdated",
            "type": "event"
        },
        {
            "anonymous": false,
            "inputs": [
                {
                    "indexed": false,
                    "internalType": "uint256",
                    "name": "_fromTokenId",
                    "type": "uint256"
                },
                {
                    "indexed": false,
                    "internalType": "uint256",
                    "name": "_toTokenId",
                    "type": "uint256"
                }
            ],
            "name": "BatchMetadataUpdate",
            "type": "event"
        },
        {
            "anonymous": false,
            "inputs": [
                {
                    "indexed": false,
                    "internalType": "uint256",
                    "name": "_tokenId",
                    "type": "uint256"
                }
            ],
            "name": "MetadataUpdate",
            "type": "event"
        },
        {
            "anonymous": false,
            "inputs": [
                {
                    "indexed": true,
                    "internalType": "bytes32",
                    "name": "role",
                    "type": "bytes32"
                },
                {
                    "indexed": true,
                    "internalType": "bytes32",
                    "name": "previousAdminRole",
                    "type": "bytes32"
                },
                {
                    "indexed": true,
                    "internalType": "bytes32",
                    "name": "newAdminRole",
                    "type": "bytes32"
                }
            ],
            "name": "RoleAdminChanged",
            "type": "event"
        },
        {
            "anonymous": false,
            "inputs": [
                {
                    "indexed": true,
                    "internalType": "bytes32",
                    "name": "role",
                    "type": "bytes32"
                },
                {
                    "indexed": true,
                    "internalType": "address",
                    "name": "account",
                    "type": "address"
                },
                {
                    "indexed": true,
                    "internalType": "address",
                    "name": "sender",
                    "type": "address"
                }
            ],
            "name": "RoleGranted",
            "type": "event"
        },
        {
            "anonymous": false,
            "inputs": [
                {
                    "indexed": true,
                    "internalType": "bytes32",
                    "name": "role",
                    "type": "bytes32"
                },
                {
                    "indexed": true,
                    "internalType": "address",
                    "name": "account",
                    "type": "address"
                },
                {
                    "indexed": true,
                    "internalType": "address",
                    "name": "sender",
                    "type": "address"
                }
            ],
            "name": "RoleRevoked",
            "type": "event"
        },
        {
            "anonymous": false,
            "inputs": [
                {
                    "indexed": false,
                    "internalType": "address",
                    "name": "receiver",
                    "type": "address"
                },
                {
                    "indexed": false,
                    "internalType": "uint96",
                    "name": "royaltyBps",
                    "type": "uint96"
                }
            ],
            "name": "RoyaltyUpdated",
            "type": "event"
        },
        {
            "anonymous": false,
            "inputs": [
                {
                    "indexed": true,
                    "internalType": "address",
                    "name": "from",
                    "type": "address"
                },
                {
                    "indexed": true,
                    "internalType": "address",
                    "name": "to",
                    "type": "address"
                },
                {
                    "indexed": true,
                    "internalType": "uint256",
                    "name": "tokenId",
                    "type": "uint256"
                }
            ],
            "name": "Transfer",
            "type": "event"
        },
        {
            "inputs": [],
            "name": "DEFAULT_ADMIN_ROLE",
            "outputs": [
                {
                    "internalType": "bytes32",
                    "name": "",
                    "type": "bytes32"
                }
            ],
            "stateMutability": "view",
            "type": "function"
        },
        {
            "inputs": [],
            "name": "GAME_ROLE",
            "outputs": [
                {
                    "internalType": "bytes32",
                    "name": "",
                    "type": "bytes32"
                }
            ],
            "stateMutability": "view",
            "type": "function"
        },
        {
            "inputs": [],
            "name": "MINTER_ROLE",
            "outputs": [
                {
                    "internalType": "bytes32",
                    "name": "",
                    "type": "bytes32"
                }
            ],
            "stateMutability": "view",
            "type": "function"
        },
        {
            "inputs": [],
            "name": "UPGRADER_ROLE",
            "outputs": [
                {
                    "internalType": "bytes32",
                    "name": "",
                    "type": "bytes32"
                }
            ],
            "stateMutability": "view",
            "type": "function"
        },
        {
            "inputs": [
                {
                    "internalType": "address",
                    "name": "to",
                    "type": "address"
                },
                {
                    "internalType": "uint256",
                    "name": "tokenId",
                    "type": "uint256"
                }
            ],
            "name": "approve",
            "outputs": [],
            "stateMutability": "nonpayable",
            "type": "function"
        },
        {
            "inputs": [
                {
                    "internalType": "address",
                    "name": "owner",
                    "type": "address"
                }
            ],
            "name": "balanceOf",
            "outputs": [
                {
                    "internalType": "uint256",
                    "name": "",
                    "type": "uint256"
                }
            ],
            "stateMutability": "view",
            "type": "function"
        },
        {
            "inputs": [
                {
                    "internalType": "uint256",
                    "name": "tokenId",
                    "type": "uint256"
                }
            ],
            "name": "burn",
            "outputs": [],
            "stateMutability": "nonpayable",
            "type": "function"
        },
        {
            "inputs": [
                {
                    "internalType": "uint256[]",
                    "name": "tokenIds",
                    "type": "uint256[]"
                },
                {
                    "internalType": "enum IFluxGameAsset.ItemType",
                    "name": "newItemType",
                    "type": "uint8"
                },
                {
                    "internalType": "uint8",
                    "name": "newRarity",
                    "type": "uint8"
                },
                {
                    "internalType": "uint8",
                    "name": "newLevel",
                    "type": "uint8"
                }
            ],
            "name": "combineAssets",
            "outputs": [
                {
                    "internalType": "uint256",
                    "name": "",
                    "type": "uint256"
                }
            ],
            "stateMutability": "nonpayable",
            "type": "function"
        },
        {
            "inputs": [
                {
                    "internalType": "uint256",
                    "name": "tokenId",
                    "type": "uint256"
                }
            ],
            "name": "exists",
            "outputs": [
                {
                    "internalType": "bool",
                    "name": "",
                    "type": "bool"
                }
            ],
            "stateMutability": "view",
            "type": "function"
        },
        {
            "inputs": [
                {
                    "internalType": "uint256",
                    "name": "tokenId",
                    "type": "uint256"
                }
            ],
            "name": "getApproved",
            "outputs": [
                {
                    "internalType": "address",
                    "name": "",
                    "type": "address"
                }
            ],
            "stateMutability": "view",
            "type": "function"
        },
        {
            "inputs": [
                {
                    "internalType": "uint256",
                    "name": "tokenId",
                    "type": "uint256"
                }
            ],
            "name": "getAssetData",
            "outputs": [
                {
                    "components": [
                        {
                            "internalType": "enum IFluxGameAsset.ItemType",
                            "name": "itemType",
                            "type": "uint8"
                        },
                        {
                            "internalType": "uint8",
                            "name": "rarity",
                            "type": "uint8"
                        },
                        {
                            "internalType": "uint8",
                            "name": "level",
                            "type": "uint8"
                        },
                        {
                            "internalType": "uint32",
                            "name": "gameId",
                            "type": "uint32"
                        },
                        {
                            "internalType": "uint256",
                            "name": "mintedAt",
                            "type": "uint256"
                        }
                    ],
                    "internalType": "struct IFluxGameAsset.AssetData",
                    "name": "",
                    "type": "tuple"
                }
            ],
            "stateMutability": "view",
            "type": "function"
        },
        {
            "inputs": [
                {
                    "internalType": "bytes32",
                    "name": "role",
                    "type": "bytes32"
                }
            ],
            "name": "getRoleAdmin",
            "outputs": [
                {
                    "internalType": "bytes32",
                    "name": "",
                    "type": "bytes32"
                }
            ],
            "stateMutability": "view",
            "type": "function"
        },
        {
            "inputs": [
                {
                    "internalType": "bytes32",
                    "name": "role",
                    "type": "bytes32"
                },
                {
                    "internalType": "address",
                    "name": "account",
                    "type": "address"
                }
            ],
            "name": "grantRole",
            "outputs": [],
            "stateMutability": "nonpayable",
            "type": "function"
        },
        {
            "inputs": [
                {
                    "internalType": "bytes32",
                    "name": "role",
                    "type": "bytes32"
                },
                {
                    "internalType": "address",
                    "name": "account",
                    "type": "address"
                }
            ],
            "name": "hasRole",
            "outputs": [
                {
                    "internalType": "bool",
                    "name": "",
                    "type": "bool"
                }
            ],
            "stateMutability": "view",
            "type": "function"
        },
        {
            "inputs": [
                {
                    "internalType": "address",
                    "name": "owner",
                    "type": "address"
                },
                {
                    "internalType": "address",
                    "name": "operator",
                    "type": "address"
                }
            ],
            "name": "isApprovedForAll",
            "outputs": [
                {
                    "internalType": "bool",
                    "name": "",
                    "type": "bool"
                }
            ],
            "stateMutability": "view",
            "type": "function"
        },
        {
            "inputs": [
                {
                    "internalType": "address",
                    "name": "to",
                    "type": "address"
                },
                {
                    "internalType": "enum IFluxGameAsset.ItemType",
                    "name": "itemType",
                    "type": "uint8"
                },
                {
                    "internalType": "uint8",
                    "name": "rarity",
                    "type": "uint8"
                },
                {
                    "internalType": "uint8",
                    "name": "level",
                    "type": "uint8"
                },
                {
                    "internalType": "uint32",
                    "name": "gameId",
                    "type": "uint32"
                }
            ],
            "name": "mint",
            "outputs": [
                {
                    "internalType": "uint256",
                    "name": "",
                    "type": "uint256"
                }
            ],
            "stateMutability": "nonpayable",
            "type": "function"
        },
        {
            "inputs": [
                {
                    "internalType": "address",
                    "name": "to",
                    "type": "address"
                },
                {
                    "internalType": "enum IFluxGameAsset.ItemType[]",
                    "name": "itemTypes",
                    "type": "uint8[]"
                },
                {
                    "internalType": "uint8[]",
                    "name": "rarities",
                    "type": "uint8[]"
                },
                {
                    "internalType": "uint8[]",
                    "name": "levels",
                    "type": "uint8[]"
                },
                {
                    "internalType": "uint32",
                    "name": "gameId",
                    "type": "uint32"
                }
            ],
            "name": "mintBatch",
            "outputs": [
                {
                    "internalType": "uint256[]",
                    "name": "",
                    "type": "uint256[]"
                }
            ],
            "stateMutability": "nonpayable",
            "type": "function"
        },
        {
            "inputs": [
                {
                    "internalType": "address",
                    "name": "to",
                    "type": "address"
                },
                {
                    "internalType": "enum IFluxGameAsset.ItemType",
                    "name": "itemType",
                    "type": "uint8"
                },
                {
                    "internalType": "uint8",
                    "name": "rarity",
                    "type": "uint8"
                },
                {
                    "internalType": "uint8",
                    "name": "level",
                    "type": "uint8"
                },
                {
                    "internalType": "uint32",
                    "name": "gameId",
                    "type": "uint32"
                },
                {
                    "internalType": "uint256",
                    "name": "nonce",
                    "type": "uint256"
                },
                {
                    "internalType": "bytes",
                    "name": "signature",
                    "type": "bytes"
                }
            ],
            "name": "mintWithSignature",
            "outputs": [
                {
                    "internalType": "uint256",
                    "name": "",
                    "type": "uint256"
                }
            ],
            "stateMutability": "nonpayable",
            "type": "function"
        },
        {
            "inputs": [],
            "name": "name",
            "outputs": [
                {
                    "internalType": "string",
                    "name": "",
                    "type": "string"
                }
            ],
            "stateMutability": "view",
            "type": "function"
        },
        {
            "inputs": [
                {
                    "internalType": "uint256",
                    "name": "tokenId",
                    "type": "uint256"
                }
            ],
            "name": "ownerOf",
            "outputs": [
                {
                    "internalType": "address",
                    "name": "",
                    "type": "address"
                }
            ],
            "stateMutability": "view",
            "type": "function"
        },
        {
            "inputs": [
                {
                    "internalType": "bytes32",
                    "name": "role",
                    "type": "bytes32"
                },
                {
                    "internalType": "address",
                    "name": "callerConfirmation",
                    "type": "address"
                }
            ],
            "name": "renounceRole",
            "outputs": [],
            "stateMutability": "nonpayable",
            "type": "function"
        },
        {
            "inputs": [
                {
                    "internalType": "bytes32",
                    "name": "role",
                    "type": "bytes32"
                },
                {
                    "internalType": "address",
                    "name": "account",
                    "type": "address"
                }
            ],
            "name": "revokeRole",
            "outputs": [],
            "stateMutability": "nonpayable",
            "type": "function"
        },
        {
            "inputs": [
                {
                    "internalType": "uint256",
                    "name": "tokenId",
                    "type": "uint256"
                },
                {
                    "internalType": "uint256",
                    "name": "salePrice",
                    "type": "uint256"
                }
            ],
            "name": "royaltyInfo",
            "outputs": [
                {
                    "internalType": "address",
                    "name": "receiver",
                    "type": "address"
                },
                {
                    "internalType": "uint256",
                    "name": "amount",
                    "type": "uint256"
                }
            ],
            "stateMutability": "view",
            "type": "function"
        },
        {
            "inputs": [
                {
                    "internalType": "address",
                    "name": "from",
                    "type": "address"
                },
                {
                    "internalType": "address",
                    "name": "to",
                    "type": "address"
                },
                {
                    "internalType": "uint256",
                    "name": "tokenId",
                    "type": "uint256"
                }
            ],
            "name": "safeTransferFrom",
            "outputs": [],
            "stateMutability": "nonpayable",
            "type": "function"
        },
        {
            "inputs": [
                {
                    "internalType": "address",
                    "name": "from",
                    "type": "address"
                },
                {
                    "internalType": "address",
                    "name": "to",
                    "type": "address"
                },
                {
                    "internalType": "uint256",
                    "name": "tokenId",
                    "type": "uint256"
                },
                {
                    "internalType": "bytes",
                    "name": "data",
                    "type": "bytes"
                }
            ],
            "name": "safeTransferFrom",
            "outputs": [],
            "stateMutability": "nonpayable",
            "type": "function"
        },
        {
            "inputs": [
                {
                    "internalType": "address",
                    "name": "operator",
                    "type": "address"
                },
                {
                    "internalType": "bool",
                    "name": "approved",
                    "type": "bool"
                }
            ],
            "name": "setApprovalForAll",
            "outputs": [],
            "stateMutability": "nonpayable",
            "type": "function"
        },
        {
            "inputs": [
                {
                    "internalType": "string",
                    "name": "newBaseURI",
                    "type": "string"
                }
            ],
            "name": "setBaseURI",
            "outputs": [],
            "stateMutability": "nonpayable",
            "type": "function"
        },
        {
            "inputs": [
                {
                    "internalType": "address",
                    "name": "receiver",
                    "type": "address"
                },
                {
                    "internalType": "uint96",
                    "name": "royaltyBps",
                    "type": "uint96"
                }
            ],
            "name": "setDefaultRoyalty",
            "outputs": [],
            "stateMutability": "nonpayable",
            "type": "function"
        },
        {
            "inputs": [
                {
                    "internalType": "bytes4",
                    "name": "interfaceId",
                    "type": "bytes4"
                }
            ],
            "name": "supportsInterface",
            "outputs": [
                {
                    "internalType": "bool",
                    "name": "",
                    "type": "bool"
                }
            ],
            "stateMutability": "view",
            "type": "function"
        },
        {
            "inputs": [],
            "name": "symbol",
            "outputs": [
                {
                    "internalType": "string",
                    "name": "",
                    "type": "string"
                }
            ],
            "stateMutability": "view",
            "type": "function"
        },
        {
            "inputs": [
                {
                    "internalType": "uint256",
                    "name": "index",
                    "type": "uint256"
                }
            ],
            "name": "tokenByIndex",
            "outputs": [
                {
                    "internalType": "uint256",
                    "name": "",
                    "type": "uint256"
                }
            ],
            "stateMutability": "view",
            "type": "function"
        },
        {
            "inputs": [
                {
                    "internalType": "address",
                    "name": "owner",
                    "type": "address"
                },
                {
                    "internalType": "uint256",
                    "name": "index",
                    "type": "uint256"
                }
            ],
            "name": "tokenOfOwnerByIndex",
            "outputs": [
                {
                    "internalType": "uint256",
                    "name": "",
                    "type": "uint256"
                }
            ],
            "stateMutability": "view",
            "type": "function"
        },
        {
            "inputs": [
                {
                    "internalType": "uint256",
                    "name": "tokenId",
                    "type": "uint256"
                }
            ],
            "name": "tokenURI",
            "outputs": [
                {
                    "internalType": "string",
                    "name": "",
                    "type": "string"
                }
            ],
            "stateMutability": "view",
            "type": "function"
        },
        {
            "inputs": [],
            "name": "totalSupply",
            "outputs": [
                {
                    "internalType": "uint256",
                    "name": "",
                    "type": "uint256"
                }
            ],
            "stateMutability": "view",
            "type": "function"
        },
        {
            "inputs": [
                {
                    "internalType": "address",
                    "name": "from",
                    "type": "address"
                },
                {
                    "internalType": "address",
                    "name": "to",
                    "type": "address"
                },
                {
                    "internalType": "uint256",
                    "name": "tokenId",
                    "type": "uint256"
                }
            ],
            "name": "transferFrom",
            "outputs": [],
            "stateMutability": "nonpayable",
            "type": "function"
        },
        {
            "inputs": [
                {
                    "internalType": "uint256",
                    "name": "tokenId",
                    "type": "uint256"
                },
                {
                    "internalType": "uint8",
                    "name": "newLevel",
                    "type": "uint8"
                }
            ],
            "name": "upgradeAsset",
            "outputs": [],
            "stateMutability": "nonpayable",
            "type": "function"
        }
    ],
    "bytecode": "0x60806040523480156200001157600080fd5b50604051620035a6380380620035a683398101604081905262000034916200033c565b828260006200004483826200045e565b5060016200005382826200045e565b50506001600d555060106200006982826200045e565b506200007760003362000116565b50620000a47f9f2df0fed2c77648de5860a4cc508cd0818c85b8b8a1ab4ceeef8d981c8956a63362000116565b50620000d17f6a64baf327d646d1bca72653e2a075d15fd6ac6d8cbd7f6ee03fc55875e0fa883362000116565b50620000fe7f189ab7a9244df0848122154315af71fe140f3db0fe014031783b0946b8c9d2e33362000116565b506200010d336101f4620001c9565b5050506200052a565b6000828152600e602090815260408083206001600160a01b038516845290915281205460ff16620001bf576000838152600e602090815260408083206001600160a01b03861684529091529020805460ff19166001179055620001763390565b6001600160a01b0316826001600160a01b0316847f2f8788117e7eff1d82e926ec794901d17c78024a50270940304540a733656f0d60405160405180910390a4506001620001c3565b5060005b92915050565b6127106001600160601b0382168110156200020e57604051636f483d0960e01b81526001600160601b0383166004820152602481018290526044015b60405180910390fd5b6001600160a01b0383166200023a57604051635b6cc80560e11b81526000600482015260240162000205565b50604080518082019091526001600160a01b039092168083526001600160601b039091166020909201829052600160a01b90910217600b55565b634e487b7160e01b600052604160045260246000fd5b600082601f8301126200029c57600080fd5b81516001600160401b0380821115620002b957620002b962000274565b604051601f8301601f19908116603f01168101908282118183101715620002e457620002e462000274565b81604052838152602092508660208588010111156200030257600080fd5b600091505b8382101562000326578582018301518183018401529082019062000307565b6000602085830101528094505050505092915050565b6000806000606084860312156200035257600080fd5b83516001600160401b03808211156200036a57600080fd5b62000378878388016200028a565b945060208601519150808211156200038f57600080fd5b6200039d878388016200028a565b93506040860151915080821115620003b457600080fd5b50620003c3868287016200028a565b9150509250925092565b600181811c90821680620003e257607f821691505b6020821081036200040357634e487b7160e01b600052602260045260246000fd5b50919050565b601f82111562000459576000816000526020600020601f850160051c81016020861015620004345750805b601f850160051c820191505b81811015620004555782815560010162000440565b5050505b505050565b81516001600160401b038111156200047a576200047a62000274565b62000492816200048b8454620003cd565b8462000409565b602080601f831160018114620004ca5760008415620004b15750858301515b600019600386901b1c1916600185901b17855562000455565b600085815260208120601f198616915b82811015620004fb57888601518255948401946001909101908401620004da565b50858210156200051a5787850151600019600388901b60f8161c191681555b5050505050600190811b01905550565b61306c806200053a6000396000f3fe608060405234801561001057600080fd5b506004361061021b5760003560e01c806355f804b311610125578063b88d4fde116100ad578063db55295b1161007c578063db55295b146104ef578063e226e0bd14610502578063e985e9c514610522578063f36309cf14610535578063f72c0d8b1461054857600080fd5b8063b88d4fde1461048f578063c87b56dd146104a2578063d5391393146104b5578063d547741f146104dc57600080fd5b806391d14854116100f457806391d148541461043257806395d89b4114610445578063a217fddf1461044d578063a22cb46514610455578063ab4007061461046857600080fd5b806355f804b3146103d95780636352211e146103ec57806370a08231146103ff5780637d1108f51461041257600080fd5b8063248a9ca3116101a857806336568abe1161017757806336568abe1461037a57806342842e0e1461038d57806342966c68146103a05780634f558e79146103b35780634f6ccce7146103c657600080fd5b8063248a9ca3146102ff5780632a55205a146103225780632f2ff15d146103545780632f745c591461036757600080fd5b8063081812fc116101ef578063081812fc14610293578063095ea7b3146102be578063170174a1146102d157806318160ddd146102e457806323b872dd146102ec57600080fd5b8062425a131461022057806301ffc9a71461024657806304634d8d1461026957806306fdde031461027e575b600080fd5b61023361022e3660046125a1565b61056f565b6040519081526020015b60405180910390f35b610259610254366004612659565b610733565b604051901515815260200161023d565b61027c610277366004612676565b610744565b005b6102866107f7565b60405161023d919061270b565b6102a66102a136600461271e565b610889565b6040516001600160a01b03909116815260200161023d565b61027c6102cc366004612737565b6108b2565b61027c6102df366004612763565b6108c1565b600854610233565b61027c6102fa36600461278f565b610a62565b61023361030d36600461271e565b6000908152600e602052604090206001015490565b6103356103303660046127d0565b610aed565b604080516001600160a01b03909316835260208301919091520161023d565b61027c6103623660046127f2565b610b74565b610233610375366004612737565b610b99565b61027c6103883660046127f2565b610bfe565b61027c61039b36600461278f565b610c36565b61027c6103ae36600461271e565b610c51565b6102596103c136600461271e565b610c5d565b6102336103d436600461271e565b610cd2565b61027c6103e7366004612817565b610d2b565b6102a66103fa36600461271e565b610d75565b61023361040d366004612859565b610d80565b61042561042036600461271e565b610dc8565b60405161023d91906128ae565b6102596104403660046127f2565b610ece565b610286610ef9565b610233600081565b61027c6104633660046128fb565b610f08565b6102337f6a64baf327d646d1bca72653e2a075d15fd6ac6d8cbd7f6ee03fc55875e0fa8881565b61027c61049d366004612944565b610f13565b6102866104b036600461271e565b610f2b565b6102337f9f2df0fed2c77648de5860a4cc508cd0818c85b8b8a1ab4ceeef8d981c8956a681565b61027c6104ea3660046127f2565b610f36565b6102336104fd366004612a24565b610f5b565b610515610510366004612ad0565b610f9f565b60405161023d9190612b8d565b610259610530366004612bd1565b611173565b610233610543366004612bff565b6111a1565b6102337f189ab7a9244df0848122154315af71fe140f3db0fe014031783b0946b8c9d2e381565b60008089898989898960405160200161058d96959493929190612c69565b6040516020818303038152906040528051906020012090506000816040516020016105e491907f19457468657265756d205369676e6564204d6573736167653a0a3332000000008152601c810191909152603c0190565b60408051601f1981840301815291815281516020928301206000818152601290935291205490915060ff161561065a5760405162461bcd60e51b815260206004820152601660248201527514da59db985d1d5c9948185b1c9958591e481d5cd95960521b60448201526064015b60405180910390fd5b6106be7f6a64baf327d646d1bca72653e2a075d15fd6ac6d8cbd7f6ee03fc55875e0fa886104408388888080601f01602080910402602001604051908101604052809392919081815260200183838082843760009201919091525061147292505050565b6106fe5760405162461bcd60e51b8152602060048201526011602482015270496e76616c6964207369676e617475726560781b6044820152606401610651565b6000818152601260205260409020805460ff191660011790556107248b8b8b8b8b61153a565b9b9a5050505050505050505050565b600061073e82611736565b92915050565b600061074f8161175b565b6103e8826001600160601b0316111561079d5760405162461bcd60e51b815260206004820152601060248201526f0a4def2c2d8e8f240e8dede40d0d2ced60831b6044820152606401610651565b6107a78383611768565b604080516001600160a01b03851681526001600160601b03841660208201527f8039bd6e4e7dba001c8840eb2e118d9d131246faa7d0d04335f7305127ec0b1091015b60405180910390a1505050565b60606000805461080690612ce6565b80601f016020809104026020016040519081016040528092919081815260200182805461083290612ce6565b801561087f5780601f106108545761010080835404028352916020019161087f565b820191906000526020600020905b81548152906001019060200180831161086257829003601f168201915b5050505050905090565b60006108948261180b565b506000828152600460205260409020546001600160a01b031661073e565b6108bd828233611844565b5050565b7f189ab7a9244df0848122154315af71fe140f3db0fe014031783b0946b8c9d2e36108eb8161175b565b60006108f684610d75565b6001600160a01b0316036109435760405162461bcd60e51b8152602060048201526014602482015273151bdad95b88191bd95cc81b9bdd08195e1a5cdd60621b6044820152606401610651565b60008381526011602052604090205460ff620100009091048116908316116109ad5760405162461bcd60e51b815260206004820152601860248201527f4e6577206c6576656c206d7573742062652068696768657200000000000000006044820152606401610651565b60648260ff1611156109f45760405162461bcd60e51b815260206004820152601060248201526f04d6178206c6576656c206973203130360841b6044820152606401610651565b600083815260116020908152604091829020805460ff8681166201000081810262ff0000198516179094558551939092041680835292820152909185917f364c6a56e43a35162ed4da0c9e4708909ceed58f30c0753400c29641454933da910160405180910390a250505050565b6001600160a01b038216610a8c57604051633250574960e11b815260006004820152602401610651565b6000610a99838333611851565b9050836001600160a01b0316816001600160a01b031614610ae7576040516364283d7b60e01b81526001600160a01b0380861660048301526024820184905282166044820152606401610651565b50505050565b6000828152600c6020526040812080548291906001600160a01b03811690600160a01b90046001600160601b031681610b41575050600b546001600160a01b03811690600160a01b90046001600160601b03165b6000612710610b596001600160601b03841689612d36565b610b639190612d4d565b9295509193505050505b9250929050565b6000828152600e6020526040902060010154610b8f8161175b565b610ae78383611866565b6000610ba483610d80565b8210610bd55760405163295f44f760e21b81526001600160a01b038416600482015260248101839052604401610651565b506001600160a01b03919091166000908152600660209081526040808320938352929052205490565b6001600160a01b0381163314610c275760405163334bd91960e11b815260040160405180910390fd5b610c3182826118fa565b505050565b610c3183838360405180602001604052806000815250610f13565b6108bd60008233611851565b6040516331a9108f60e11b8152600481018290526000903090636352211e90602401602060405180830381865afa925050508015610cb8575060408051601f3d908101601f19168201909252610cb591810190612d6f565b60015b610cc457506000919050565b50600192915050565b919050565b6000610cdd60085490565b8210610d065760405163295f44f760e21b81526000600482015260248101839052604401610651565b60088281548110610d1957610d19612d8c565b90600052602060002001549050919050565b6000610d368161175b565b6010610d43838583612dea565b507f6741b2fc379fad678116fe3d4d4b9a1a184ab53ba36b86ad0fa66340b1ab41ad83836040516107ea929190612eaa565b600061073e8261180b565b60006001600160a01b038216610dac576040516322718ad960e21b815260006004820152602401610651565b506001600160a01b031660009081526003602052604090205490565b6040805160a081018252600080825260208201819052918101829052606081018290526080810182905290610dfc83610d75565b6001600160a01b031603610e495760405162461bcd60e51b8152602060048201526014602482015273151bdad95b88191bd95cc81b9bdd08195e1a5cdd60621b6044820152606401610651565b60008281526011602052604090819020815160a081019092528054829060ff166005811115610e7a57610e7a612876565b6005811115610e8b57610e8b612876565b8152815460ff61010082048116602084015262010000820416604083015263ffffffff630100000090910416606082015260019091015460809091015292915050565b6000918252600e602090815260408084206001600160a01b0393909316845291905290205460ff1690565b60606001805461080690612ce6565b6108bd338383611967565b610f1e848484610a62565b610ae73385858585611a06565b606061073e82611b31565b6000828152600e6020526040902060010154610f518161175b565b610ae783836118fa565b60007f9f2df0fed2c77648de5860a4cc508cd0818c85b8b8a1ab4ceeef8d981c8956a6610f878161175b565b610f94878787878761153a565b979650505050505050565b60607f9f2df0fed2c77648de5860a4cc508cd0818c85b8b8a1ab4ceeef8d981c8956a6610fcb8161175b565b8786148015610fd957508584145b61101d5760405162461bcd60e51b8152602060048201526015602482015274082e4e4c2f240d8cadccee8d040dad2e6dac2e8c6d605b1b6044820152606401610651565b871580159061102d575060648811155b61106e5760405162461bcd60e51b8152602060048201526012602482015271496e76616c69642062617463682073697a6560701b6044820152606401610651565b60008867ffffffffffffffff8111156110895761108961292e565b6040519080825280602002602001820160405280156110b2578160200160208202803683370190505b50905060005b898110156111645761113f8c8c8c848181106110d6576110d6612d8c565b90506020020160208101906110eb9190612ed9565b8b8b858181106110fd576110fd612d8c565b90506020020160208101906111129190612ef4565b8a8a8681811061112457611124612d8c565b90506020020160208101906111399190612ef4565b89610f5b565b82828151811061115157611151612d8c565b60209081029190910101526001016110b8565b509a9950505050505050505050565b6001600160a01b03918216600090815260056020908152604080832093909416825291909152205460ff1690565b60006111ab611c2d565b60028510156111f55760405162461bcd60e51b81526020600482015260166024820152754e656564206174206c6561737420322061737365747360501b6044820152606401610651565b600a8511156112385760405162461bcd60e51b815260206004820152600f60248201526e546f6f206d616e792061737365747360881b6044820152606401610651565b600061125c8787600081811061125057611250612d8c565b90506020020135610d75565b90506001600160a01b03811633148061129a575061129a7f6a64baf327d646d1bca72653e2a075d15fd6ac6d8cbd7f6ee03fc55875e0fa8833610ece565b6112d75760405162461bcd60e51b815260206004820152600e60248201526d139bdd08185d5d1a1bdc9a5e995960921b6044820152606401610651565b60005b868110156113c657816001600160a01b031661130189898481811061125057611250612d8c565b6001600160a01b0316146113575760405162461bcd60e51b815260206004820152601f60248201527f416c6c20617373657473206d75737420686176652073616d65206f776e6572006044820152606401610651565b61137888888381811061136c5761136c612d8c565b90506020020135611c57565b6011600089898481811061138e5761138e612d8c565b602090810292909201358352508101919091526040016000908120805466ffffffffffffff19168155600190810191909155016112da565b50600061141582878787601160008e8e60008181106113e7576113e7612d8c565b90506020020135815260200190815260200160002060000160039054906101000a900463ffffffff1661153a565b9050816001600160a01b03167f7cdde84fab4ca72ef5bb4e856bc74f550cd981e5e25c4898279f870d5c073ae989898460405161145493929190612f0f565b60405180910390a29150506114696001600d55565b95945050505050565b600081516041146114c55760405162461bcd60e51b815260206004820152601860248201527f496e76616c6964207369676e6174757265206c656e67746800000000000000006044820152606401610651565b602082810151604080850151606080870151835160008082529681018086528a9052951a928501839052840183905260808401819052919260019060a0016020604051602081039080840390855afa158015611525573d6000803e3d6000fd5b5050604051601f190151979650505050505050565b600060018460ff1610158015611554575060058460ff1611155b6115915760405162461bcd60e51b815260206004820152600e60248201526d496e76616c69642072617269747960901b6044820152606401610651565b60018360ff16101580156115a9575060648360ff1611155b6115e55760405162461bcd60e51b815260206004820152600d60248201526c125b9d985b1a59081b195d995b609a1b6044820152606401610651565b600f805490819060006115f783612f4d565b91905055506116068782611c92565b6040518060a0016040528087600581111561162357611623612876565b815260ff80881660208084019190915290871660408084019190915263ffffffff8716606084015242608090930192909252600084815260119091522081518154829060ff1916600183600581111561167e5761167e612876565b021790555060208201518154604080850151606086015162ffff001990931661010060ff9586160262ff00001916176201000094909116939093029290921766ffffffff0000001916630100000063ffffffff90921691909102178255608090920151600190910155516001600160a01b0388169082907f5df6db0fcdd71972b6e4fbda06b5015fa0a2a9fa970540e14bfb47d4bf512bae90611724908a908a90612f66565b60405180910390a39695505050505050565b60006001600160e01b03198216637965db0b60e01b148061073e575061073e82611cac565b6117658133611cd1565b50565b6127106001600160601b0382168110156117a757604051636f483d0960e01b81526001600160601b038316600482015260248101829052604401610651565b6001600160a01b0383166117d157604051635b6cc80560e11b815260006004820152602401610651565b50604080518082019091526001600160a01b039092168083526001600160601b039091166020909201829052600160a01b90910217600b55565b6000818152600260205260408120546001600160a01b03168061073e57604051637e27328960e01b815260048101849052602401610651565b610c318383836001611d0a565b600061185e848484611e10565b949350505050565b60006118728383610ece565b6118f2576000838152600e602090815260408083206001600160a01b03861684529091529020805460ff191660011790556118aa3390565b6001600160a01b0316826001600160a01b0316847f2f8788117e7eff1d82e926ec794901d17c78024a50270940304540a733656f0d60405160405180910390a450600161073e565b50600061073e565b60006119068383610ece565b156118f2576000838152600e602090815260408083206001600160a01b0386168085529252808320805460ff1916905551339286917ff6391f5c32d9c69d2a47ea670b442974b53935d1edc7fd64eb21e047a839171b9190a450600161073e565b6001600160a01b03821661199957604051630b61174360e31b81526001600160a01b0383166004820152602401610651565b6001600160a01b03838116600081815260056020908152604080832094871680845294825291829020805460ff191686151590811790915591519182527f17307eab39ab6107e8899845ad3d59bd9653f200f220920489ca2b5937696c31910160405180910390a3505050565b6001600160a01b0383163b15611b2a57604051630a85bd0160e11b81526001600160a01b0384169063150b7a0290611a48908890889087908790600401612f84565b6020604051808303816000875af1925050508015611a83575060408051601f3d908101601f19168201909252611a8091810190612fc1565b60015b611aec573d808015611ab1576040519150601f19603f3d011682016040523d82523d6000602084013e611ab6565b606091505b508051600003611ae457604051633250574960e11b81526001600160a01b0385166004820152602401610651565b805160208201fd5b6001600160e01b03198116630a85bd0160e11b14611b2857604051633250574960e11b81526001600160a01b0385166004820152602401610651565b505b5050505050565b6060611b3c8261180b565b506000828152600a602052604081208054611b5690612ce6565b80601f0160208091040260200160405190810160405280929190818152602001828054611b8290612ce6565b8015611bcf5780601f10611ba457610100808354040283529160200191611bcf565b820191906000526020600020905b815481529060010190602001808311611bb257829003601f168201915b505050505090506000611be0611edd565b90508051600003611bf2575092915050565b815115611c24578082604051602001611c0c929190612fde565b60405160208183030381529060405292505050919050565b61185e84611eec565b6002600d5403611c5057604051633ee5aeb560e01b815260040160405180910390fd5b6002600d55565b6000611c666000836000611851565b90506001600160a01b0381166108bd57604051637e27328960e01b815260048101839052602401610651565b6108bd828260405180602001604052806000815250611f54565b60006001600160e01b0319821663152a902d60e11b148061073e575061073e82611f6c565b611cdb8282610ece565b6108bd5760405163e2517d3f60e01b81526001600160a01b038216600482015260248101839052604401610651565b8080611d1e57506001600160a01b03821615155b15611de0576000611d2e8461180b565b90506001600160a01b03831615801590611d5a5750826001600160a01b0316816001600160a01b031614155b8015611d6d5750611d6b8184611173565b155b15611d965760405163a9fbf51f60e01b81526001600160a01b0384166004820152602401610651565b8115611dde5783856001600160a01b0316826001600160a01b03167f8c5be1e5ebec7d5bd14f71427d1e84f3dd0314c0f7b2291e5b200ac8c7c3b92560405160405180910390a45b505b5050600090815260046020526040902080546001600160a01b0319166001600160a01b0392909216919091179055565b600080611e1e858585611f91565b90506001600160a01b038116611e7b57611e7684600880546000838152600960205260408120829055600182018355919091527ff3f7a9fe364faab93b216da50a3214154f22a0a2b415b23a84c8169e8b636ee30155565b611e9e565b846001600160a01b0316816001600160a01b031614611e9e57611e9e818561208a565b6001600160a01b038516611eba57611eb58461210b565b61185e565b846001600160a01b0316816001600160a01b03161461185e5761185e85856121ba565b60606010805461080690612ce6565b6060611ef78261180b565b506000611f02611edd565b90506000815111611f225760405180602001604052806000815250611f4d565b80611f2c8461220a565b604051602001611f3d929190612fde565b6040516020818303038152906040525b9392505050565b611f5e838361229d565b610c31336000858585611a06565b60006001600160e01b03198216632483248360e11b148061073e575061073e82612302565b6000828152600260205260408120546001600160a01b0390811690831615611fbe57611fbe818486612327565b6001600160a01b03811615611ffc57611fdb600085600080611d0a565b6001600160a01b038116600090815260036020526040902080546000190190555b6001600160a01b0385161561202b576001600160a01b0385166000908152600360205260409020805460010190555b60008481526002602052604080822080546001600160a01b0319166001600160a01b0389811691821790925591518793918516917fddf252ad1be2c89b69c2b068fc378daa952ba7f163c4a11628f55a4df523b3ef91a4949350505050565b600061209583610d80565b6000838152600760209081526040808320546001600160a01b03881684526006909252909120919250908183146120ec57600083815260208281526040808320548584528184208190558352600790915290208290555b6000938452600760209081526040808620869055938552525081205550565b60085460009061211d9060019061300d565b6000838152600960205260408120546008805493945090928490811061214557612145612d8c565b90600052602060002001549050806008838154811061216657612166612d8c565b600091825260208083209091019290925582815260099091526040808220849055858252812055600880548061219e5761219e613020565b6001900381819060005260206000200160009055905550505050565b600060016121c784610d80565b6121d1919061300d565b6001600160a01b039093166000908152600660209081526040808320868452825280832085905593825260079052919091209190915550565b606060006122178361238b565b600101905060008167ffffffffffffffff8111156122375761223761292e565b6040519080825280601f01601f191660200182016040528015612261576020820181803683370190505b5090508181016020015b600019016f181899199a1a9b1b9c1cb0b131b232b360811b600a86061a8153600a850494508461226b57509392505050565b6001600160a01b0382166122c757604051633250574960e11b815260006004820152602401610651565b60006122d583836000611851565b90506001600160a01b03811615610c31576040516339e3563760e11b815260006004820152602401610651565b60006001600160e01b0319821663780e9d6360e01b148061073e575061073e82612463565b6123328383836124b3565b610c31576001600160a01b03831661236057604051637e27328960e01b815260048101829052602401610651565b60405163177e802f60e01b81526001600160a01b038316600482015260248101829052604401610651565b60008072184f03e93ff9f4daa797ed6e38ed64bf6a1f0160401b83106123ca5772184f03e93ff9f4daa797ed6e38ed64bf6a1f0160401b830492506040015b6d04ee2d6d415b85acef810000000083106123f6576d04ee2d6d415b85acef8100000000830492506020015b662386f26fc10000831061241457662386f26fc10000830492506010015b6305f5e100831061242c576305f5e100830492506008015b612710831061244057612710830492506004015b60648310612452576064830492506002015b600a831061073e5760010192915050565b60006001600160e01b031982166380ac58cd60e01b148061249457506001600160e01b03198216635b5e139f60e01b145b8061073e57506301ffc9a760e01b6001600160e01b031983161461073e565b60006001600160a01b0383161580159061185e5750826001600160a01b0316846001600160a01b031614806124ed57506124ed8484611173565b8061185e5750506000908152600460205260409020546001600160a01b03908116911614919050565b6001600160a01b038116811461176557600080fd5b803560068110610ccd57600080fd5b803560ff81168114610ccd57600080fd5b803563ffffffff81168114610ccd57600080fd5b60008083601f84011261257157600080fd5b50813567ffffffffffffffff81111561258957600080fd5b602083019150836020828501011115610b6d57600080fd5b60008060008060008060008060e0898b0312156125bd57600080fd5b88356125c881612516565b97506125d660208a0161252b565b96506125e460408a0161253a565b95506125f260608a0161253a565b945061260060808a0161254b565b935060a0890135925060c089013567ffffffffffffffff81111561262357600080fd5b61262f8b828c0161255f565b999c989b5096995094979396929594505050565b6001600160e01b03198116811461176557600080fd5b60006020828403121561266b57600080fd5b8135611f4d81612643565b6000806040838503121561268957600080fd5b823561269481612516565b915060208301356001600160601b03811681146126b057600080fd5b809150509250929050565b60005b838110156126d65781810151838201526020016126be565b50506000910152565b600081518084526126f78160208601602086016126bb565b601f01601f19169290920160200192915050565b602081526000611f4d60208301846126df565b60006020828403121561273057600080fd5b5035919050565b6000806040838503121561274a57600080fd5b823561275581612516565b946020939093013593505050565b6000806040838503121561277657600080fd5b823591506127866020840161253a565b90509250929050565b6000806000606084860312156127a457600080fd5b83356127af81612516565b925060208401356127bf81612516565b929592945050506040919091013590565b600080604083850312156127e357600080fd5b50508035926020909101359150565b6000806040838503121561280557600080fd5b8235915060208301356126b081612516565b6000806020838503121561282a57600080fd5b823567ffffffffffffffff81111561284157600080fd5b61284d8582860161255f565b90969095509350505050565b60006020828403121561286b57600080fd5b8135611f4d81612516565b634e487b7160e01b600052602160045260246000fd5b600681106128aa57634e487b7160e01b600052602160045260246000fd5b9052565b600060a0820190506128c182845161288c565b60ff602084015116602083015260ff604084015116604083015263ffffffff60608401511660608301526080830151608083015292915050565b6000806040838503121561290e57600080fd5b823561291981612516565b9150602083013580151581146126b057600080fd5b634e487b7160e01b600052604160045260246000fd5b6000806000806080858703121561295a57600080fd5b843561296581612516565b9350602085013561297581612516565b925060408501359150606085013567ffffffffffffffff8082111561299957600080fd5b818701915087601f8301126129ad57600080fd5b8135818111156129bf576129bf61292e565b604051601f8201601f19908116603f011681019083821181831017156129e7576129e761292e565b816040528281528a6020848701011115612a0057600080fd5b82602086016020830137600060208483010152809550505050505092959194509250565b600080600080600060a08688031215612a3c57600080fd5b8535612a4781612516565b9450612a556020870161252b565b9350612a636040870161253a565b9250612a716060870161253a565b9150612a7f6080870161254b565b90509295509295909350565b60008083601f840112612a9d57600080fd5b50813567ffffffffffffffff811115612ab557600080fd5b6020830191508360208260051b8501011115610b6d57600080fd5b60008060008060008060008060a0898b031215612aec57600080fd5b8835612af781612516565b9750602089013567ffffffffffffffff80821115612b1457600080fd5b612b208c838d01612a8b565b909950975060408b0135915080821115612b3957600080fd5b612b458c838d01612a8b565b909750955060608b0135915080821115612b5e57600080fd5b50612b6b8b828c01612a8b565b9094509250612b7e905060808a0161254b565b90509295985092959890939650565b6020808252825182820181905260009190848201906040850190845b81811015612bc557835183529284019291840191600101612ba9565b50909695505050505050565b60008060408385031215612be457600080fd5b8235612bef81612516565b915060208301356126b081612516565b600080600080600060808688031215612c1757600080fd5b853567ffffffffffffffff811115612c2e57600080fd5b612c3a88828901612a8b565b9096509450612c4d90506020870161252b565b9250612c5b6040870161253a565b9150612a7f6060870161253a565b6001600160601b03198760601b168152600060068710612c9957634e487b7160e01b600052602160045260246000fd5b5060f895861b601482015293851b6001600160f81b031990811660158601529290941b909116601683015260e01b6001600160e01b0319166017820152601b810191909152603b01919050565b600181811c90821680612cfa57607f821691505b602082108103612d1a57634e487b7160e01b600052602260045260246000fd5b50919050565b634e487b7160e01b600052601160045260246000fd5b808202811582820484141761073e5761073e612d20565b600082612d6a57634e487b7160e01b600052601260045260246000fd5b500490565b600060208284031215612d8157600080fd5b8151611f4d81612516565b634e487b7160e01b600052603260045260246000fd5b601f821115610c31576000816000526020600020601f850160051c81016020861015612dcb5750805b601f850160051c820191505b81811015611b2857828155600101612dd7565b67ffffffffffffffff831115612e0257612e0261292e565b612e1683612e108354612ce6565b83612da2565b6000601f841160018114612e4a5760008515612e325750838201355b600019600387901b1c1916600186901b178355611b2a565b600083815260209020601f19861690835b82811015612e7b5786850135825560209485019460019092019101612e5b565b5086821015612e985760001960f88860031b161c19848701351681555b505060018560011b0183555050505050565b60208152816020820152818360408301376000818301604090810191909152601f909201601f19160101919050565b600060208284031215612eeb57600080fd5b611f4d8261252b565b600060208284031215612f0657600080fd5b611f4d8261253a565b6040808252810183905260006001600160fb1b03841115612f2f57600080fd5b8360051b808660608501376020830193909352500160600192915050565b600060018201612f5f57612f5f612d20565b5060010190565b60408101612f74828561288c565b60ff831660208301529392505050565b6001600160a01b0385811682528416602082015260408101839052608060608201819052600090612fb7908301846126df565b9695505050505050565b600060208284031215612fd357600080fd5b8151611f4d81612643565b60008351612ff08184602088016126bb565b8351908301906130048183602088016126bb565b01949350505050565b8181038181111561073e5761073e612d20565b634e487b7160e01b600052603160045260246000fdfea2646970667358221220e01a8abb7a59a13952bfed9a4b6e7dcea3011ef14aad211a845b3e83b8e9496764736f6c63430008180033",
    "linkReferences": {},
    "deployedLinkReferences": {}
}