{
    "_format": "hh-sol-artifact-1",
    "contractName": "FluxMarketplace",
    "sourceName": "contracts/FluxMarketplace.sol",
    "abi": [
        {
            "inputs": [
                {
                    "internalType": "uint256",
                    "name": "platformFeeBps_",
                    "type": "uint256"
                },
                {
                    "internalType": "address",
                    "name": "feeRecipient_",
                    "type": "address"
                }
            ],
            "stateMutability": "nonpayable",
            "type": "constructor"
        },
        {
            "inputs": [],
            "name": "AccessControlBadConfirmation",
            "type": "error"
        },
        {
            "inputs": [
                {
                    "internalType": "address",
                    "name": "account",
                    "type": "address"
                },
                {
                    "internalType": "bytes32",
                    "name": "neededRole",
                    "type": "bytes32"
                }
            ],
            "name": "AccessControlUnauthorizedAccount",
            "type": "error"
        },
        {
            "inputs": [],
            "name": "EnforcedPause",
            "type": "error"
        },
        {
            "inputs": [],
            "name": "ExpectedPause",
            "type": "error"
        },
        {
            "inputs": [],
            "name": "ReentrancyGuardReentrantCall",
            "type": "error"
        },
        {
            "inputs": [
                {
                    "internalType": "address",
                    "name": "token",
                    "type": "address"
                }
            ],
            "name": "SafeERC20FailedOperation",
            "type": "error"
        },
        {
            "anonymous": false,
            "inputs": [
                {
                    "indexed": false,
                    "internalType": "uint256",
                    "name": "platformFeeBps",
                    "type": "uint256"
                },
                {
                    "indexed": false,
                    "internalType": "address",
                    "name": "feeRecipient",
                    "type": "address"
                }
            ],
            "name": "FeeConfigUpdated",
            "type": "event"
        },
        {
            "anonymous": false,
            "inputs": [
                {
                    "indexed": true,
                    "internalType": "uint256",
                    "name": "tradeId",
                    "type": "uint256"
                },
                {
                    "indexed": false,
                    "internalType": "uint256",
                    "name": "platformFee",
                    "type": "uint256"
                },
                {
                    "indexed": false,
                    "internalType": "uint256",
                    "name": "royaltyFee",
                    "type": "uint256"
                }
            ],
            "name": "FeesCollected",
            "type": "event"
        },
        {
            "anonymous": false,
            "inputs": [
                {
                    "indexed": true,
                    "internalType": "uint256",
                    "name": "listingId",
                    "type": "uint256"
                }
            ],
            "name": "ListingCancelled",
            "type": "event"
        },
        {
            "anonymous": false,
            "inputs": [
                {
                    "indexed": true,
                    "internalType": "uint256",
                    "name": "listingId",
                    "type": "uint256"
                },
                {
                    "indexed": true,
                    "internalType": "address",
                    "name": "seller",
                    "type": "address"
                },
                {
                    "indexed": true,
                    "internalType": "address",
                    "name": "assetContract",
                    "type": "address"
                },
                {
                    "indexed": false,
                    "internalType": "uint256",
                    "name": "tokenId",
                    "type": "uint256"
                },
                {
                    "indexed": false,
                    "internalType": "uint256",
                    "name": "price",
                    "type": "uint256"
                }
            ],
            "name": "ListingCreated",
            "type": "event"
        },
        {
            "anonymous": false,
            "inputs": [
                {
                    "indexed": true,
                    "internalType": "uint256",
                    "name": "listingId",
                    "type": "uint256"
                },
                {
                    "indexed": false,
                    "internalType": "uint256",
                    "name": "newPrice",
                    "type": "uint256"
                },
                {
                    "indexed": false,
                    "internalType": "uint256",
                    "name": "newDeadline",
                    "type": "uint256"
                }
            ],
            "name": "ListingUpdated",
            "type": "event"
        },
        {
            "anonymous": false,
            "inputs": [
                {
                    "indexed": true,
                    "internalType": "uint256",
                    "name": "offerId",
                    "type": "uint256"
                }
            ],
            "name": "OfferCancelled",
            "type": "event"
        },
        {
            "anonymous": false,
            "inputs": [
                {
                    "indexed": true,
                    "internalType": "uint256",
                    "name": "offerId",
                    "type": "uint256"
                },
                {
                    "indexed": true,
                    "internalType": "uint256",
                    "name": "listingId",
                    "type": "uint256"
                },
                {
                    "indexed": true,
                    "internalType": "address",
                    "name": "buyer",
                    "type": "address"
                },
                {
                    "indexed": false,
                    "internalType": "uint256",
                    "name": "offerPrice",
                    "type": "uint256"
                }
            ],
            "name": "OfferCreated",
            "type": "event"
        },
        {
            "anonymous": false,
            "inputs": [
                {
                    "indexed": false,
                    "internalType": "address",
                    "name": "account",
                    "type": "address"
                }
            ],
            "name": "Paused",
            "type": "event"
        },
        {
            "anonymous": false,
            "inputs": [
                {
                    "indexed": true,
                    "internalType": "bytes32",
                    "name": "role",
                    "type": "bytes32"
                },
                {
                    "indexed": true,
                    "internalType": "bytes32",
                    "name": "previousAdminRole",
                    "type": "bytes32"
                },
                {
                    "indexed": true,
                    "internalType": "bytes32",
                    "name": "newAdminRole",
                    "type": "bytes32"
                }
            ],
            "name": "RoleAdminChanged",
            "type": "event"
        },
        {
            "anonymous": false,
            "inputs": [
                {
                    "indexed": true,
                    "internalType": "bytes32",
                    "name": "role",
                    "type": "bytes32"
                },
                {
                    "indexed": true,
                    "internalType": "address",
                    "name": "account",
                    "type": "address"
                },
                {
                    "indexed": true,
                    "internalType": "address",
                    "name": "sender",
                    "type": "address"
                }
            ],
            "name": "RoleGranted",
            "type": "event"
        },
        {
            "anonymous": false,
            "inputs": [
                {
                    "indexed": true,
                    "internalType": "bytes32",
                    "name": "role",
                    "type": "bytes32"
                },
                {
                    "indexed": true,
                    "internalType": "address",
                    "name": "account",
                    "type": "address"
                },
                {
                    "indexed": true,
                    "internalType": "address",
                    "name": "sender",
                    "type": "address"
                }
            ],
            "name": "RoleRevoked",
            "type": "event"
        },
        {
            "anonymous": false,
            "inputs": [
                {
                    "indexed": true,
                    "internalType": "uint256",
                    "name": "tradeId",
                    "type": "uint256"
                },
                {
                    "indexed": true,
                    "internalType": "uint256",
                    "name": "listingId",
                    "type": "uint256"
                },
                {
                    "indexed": false,
                    "internalType": "address",
                    "name": "seller",
                    "type": "address"
                },
                {
                    "indexed": false,
                    "internalType": "address",
                    "name": "buyer",
                    "type": "address"
                },
                {
                    "indexed": false,
                    "internalType": "uint256",
                    "name": "price",
                    "type": "uint256"
                },
                {
                    "indexed": false,
                    "internalType": "uint256",
                    "name": "quantity",
                    "type": "uint256"
                }
            ],
            "name": "TradeExecuted",
            "type": "event"
        },
        {
            "anonymous": false,
            "inputs": [
                {
                    "indexed": false,
                    "internalType": "address",
                    "name": "account",
                    "type": "address"
                }
            ],
            "name": "Unpaused",
            "type": "event"
        },
        {
            "inputs": [],
            "name": "ADMIN_ROLE",
            "outputs": [
                {
                    "internalType": "bytes32",
                    "name": "",
                    "type": "bytes32"
                }
            ],
            "stateMutability": "view",
            "type": "function"
        },
        {
            "inputs": [],
            "name": "DEFAULT_ADMIN_ROLE",
            "outputs": [
                {
                    "internalType": "bytes32",
                    "name": "",
                    "type": "bytes32"
                }
            ],
            "stateMutability": "view",
            "type": "function"
        },
        {
            "inputs": [],
            "name": "DENOMINATOR",
            "outputs": [
                {
                    "internalType": "uint256",
                    "name": "",
                    "type": "uint256"
                }
            ],
            "stateMutability": "view",
            "type": "function"
        },
        {
            "inputs": [],
            "name": "MAX_PLATFORM_FEE",
            "outputs": [
                {
                    "internalType": "uint256",
                    "name": "",
                    "type": "uint256"
                }
            ],
            "stateMutability": "view",
            "type": "function"
        },
        {
            "inputs": [],
            "name": "OPERATOR_ROLE",
            "outputs": [
                {
                    "internalType": "bytes32",
                    "name": "",
                    "type": "bytes32"
                }
            ],
            "stateMutability": "view",
            "type": "function"
        },
        {
            "inputs": [
                {
                    "internalType": "uint256",
                    "name": "offerId",
                    "type": "uint256"
                }
            ],
            "name": "acceptOffer",
            "outputs": [],
            "stateMutability": "nonpayable",
            "type": "function"
        },
        {
            "inputs": [
                {
                    "internalType": "uint256",
                    "name": "listingId",
                    "type": "uint256"
                },
                {
                    "internalType": "uint256",
                    "name": "quantity",
                    "type": "uint256"
                }
            ],
            "name": "buyItem",
            "outputs": [],
            "stateMutability": "payable",
            "type": "function"
        },
        {
            "inputs": [
                {
                    "internalType": "uint256",
                    "name": "price",
                    "type": "uint256"
                }
            ],
            "name": "calculateFees",
            "outputs": [
                {
                    "internalType": "uint256",
                    "name": "platformFee",
                    "type": "uint256"
                },
                {
                    "internalType": "uint256",
                    "name": "total",
                    "type": "uint256"
                }
            ],
            "stateMutability": "view",
            "type": "function"
        },
        {
            "inputs": [
                {
                    "internalType": "uint256",
                    "name": "listingId",
                    "type": "uint256"
                }
            ],
            "name": "cancelListing",
            "outputs": [],
            "stateMutability": "nonpayable",
            "type": "function"
        },
        {
            "inputs": [
                {
                    "internalType": "uint256",
                    "name": "offerId",
                    "type": "uint256"
                }
            ],
            "name": "cancelOffer",
            "outputs": [],
            "stateMutability": "nonpayable",
            "type": "function"
        },
        {
            "inputs": [
                {
                    "internalType": "enum IFluxMarketplace.AssetType",
                    "name": "assetType",
                    "type": "uint8"
                },
                {
                    "internalType": "address",
                    "name": "assetContract",
                    "type": "address"
                },
                {
                    "internalType": "uint256",
                    "name": "tokenId",
                    "type": "uint256"
                },
                {
                    "internalType": "uint256",
                    "name": "amount",
                    "type": "uint256"
                },
                {
                    "internalType": "address",
                    "name": "paymentToken",
                    "type": "address"
                },
                {
                    "internalType": "uint256",
                    "name": "price",
                    "type": "uint256"
                },
                {
                    "internalType": "uint256",
                    "name": "deadline",
                    "type": "uint256"
                }
            ],
            "name": "createListing",
            "outputs": [
                {
                    "internalType": "uint256",
                    "name": "listingId",
                    "type": "uint256"
                }
            ],
            "stateMutability": "nonpayable",
            "type": "function"
        },
        {
            "inputs": [
                {
                    "internalType": "uint256",
                    "name": "listingId",
                    "type": "uint256"
                },
                {
                    "internalType": "uint256",
                    "name": "offerPrice",
                    "type": "uint256"
                },
                {
                    "internalType": "uint256",
                    "name": "quantity",
                    "type": "uint256"
                },
                {
                    "internalType": "uint256",
                    "name": "expiration",
                    "type": "uint256"
                }
            ],
            "name": "createOffer",
            "outputs": [
                {
                    "internalType": "uint256",
                    "name": "offerId",
                    "type": "uint256"
                }
            ],
            "stateMutability": "payable",
            "type": "function"
        },
        {
            "inputs": [
                {
                    "internalType": "address",
                    "name": "token",
                    "type": "address"
                },
                {
                    "internalType": "uint256",
                    "name": "amount",
                    "type": "uint256"
                }
            ],
            "name": "emergencyWithdraw",
            "outputs": [],
            "stateMutability": "nonpayable",
            "type": "function"
        },
        {
            "inputs": [],
            "name": "feeConfig",
            "outputs": [
                {
                    "internalType": "uint256",
                    "name": "platformFeeBps",
                    "type": "uint256"
                },
                {
                    "internalType": "address",
                    "name": "feeRecipient",
                    "type": "address"
                },
                {
                    "internalType": "address",
                    "name": "royaltyEngine",
                    "type": "address"
                }
            ],
            "stateMutability": "view",
            "type": "function"
        },
        {
            "inputs": [
                {
                    "internalType": "uint256",
                    "name": "listingId",
                    "type": "uint256"
                }
            ],
            "name": "getListing",
            "outputs": [
                {
                    "components": [
                        {
                            "internalType": "uint256",
                            "name": "listingId",
                            "type": "uint256"
                        },
                        {
                            "internalType": "address",
                            "name": "seller",
                            "type": "address"
                        },
                        {
                            "internalType": "enum IFluxMarketplace.AssetType",
                            "name": "assetType",
                            "type": "uint8"
                        },
                        {
                            "internalType": "address",
                            "name": "assetContract",
                            "type": "address"
                        },
                        {
                            "internalType": "uint256",
                            "name": "tokenId",
                            "type": "uint256"
                        },
                        {
                            "internalType": "uint256",
                            "name": "amount",
                            "type": "uint256"
                        },
                        {
                            "internalType": "uint256",
                            "name": "originalAmount",
                            "type": "uint256"
                        },
                        {
                            "internalType": "address",
                            "name": "paymentToken",
                            "type": "address"
                        },
                        {
                            "internalType": "uint256",
                            "name": "price",
                            "type": "uint256"
                        },
                        {
                            "internalType": "uint256",
                            "name": "deadline",
                            "type": "uint256"
                        },
                        {
                            "internalType": "enum IFluxMarketplace.ListingStatus",
                            "name": "status",
                            "type": "uint8"
                        }
                    ],
                    "internalType": "struct IFluxMarketplace.Listing",
                    "name": "",
                    "type": "tuple"
                }
            ],
            "stateMutability": "view",
            "type": "function"
        },
        {
            "inputs": [
                {
                    "internalType": "uint256",
                    "name": "listingId",
                    "type": "uint256"
                }
            ],
            "name": "getListingOffers",
            "outputs": [
                {
                    "internalType": "uint256[]",
                    "name": "",
                    "type": "uint256[]"
                }
            ],
            "stateMutability": "view",
            "type": "function"
        },
        {
            "inputs": [
                {
                    "internalType": "uint256",
                    "name": "offerId",
                    "type": "uint256"
                }
            ],
            "name": "getOffer",
            "outputs": [
                {
                    "components": [
                        {
                            "internalType": "uint256",
                            "name": "offerId",
                            "type": "uint256"
                        },
                        {
                            "internalType": "uint256",
                            "name": "listingId",
                            "type": "uint256"
                        },
                        {
                            "internalType": "address",
                            "name": "buyer",
                            "type": "address"
                        },
                        {
                            "internalType": "uint256",
                            "name": "offerPrice",
                            "type": "uint256"
                        },
                        {
                            "internalType": "uint256",
                            "name": "quantity",
                            "type": "uint256"
                        },
                        {
                            "internalType": "uint256",
                            "name": "expiration",
                            "type": "uint256"
                        },
                        {
                            "internalType": "enum IFluxMarketplace.OfferStatus",
                            "name": "status",
                            "type": "uint8"
                        }
                    ],
                    "internalType": "struct IFluxMarketplace.Offer",
                    "name": "",
                    "type": "tuple"
                }
            ],
            "stateMutability": "view",
            "type": "function"
        },
        {
            "inputs": [
                {
                    "internalType": "bytes32",
                    "name": "role",
                    "type": "bytes32"
                }
            ],
            "name": "getRoleAdmin",
            "outputs": [
                {
                    "internalType": "bytes32",
                    "name": "",
                    "type": "bytes32"
                }
            ],
            "stateMutability": "view",
            "type": "function"
        },
        {
            "inputs": [
                {
                    "internalType": "address",
                    "name": "seller",
                    "type": "address"
                }
            ],
            "name": "getSellerListings",
            "outputs": [
                {
                    "internalType": "uint256[]",
                    "name": "",
                    "type": "uint256[]"
                }
            ],
            "stateMutability": "view",
            "type": "function"
        },
        {
            "inputs": [
                {
                    "internalType": "uint256",
                    "name": "tradeId",
                    "type": "uint256"
                }
            ],
            "name": "getTrade",
            "outputs": [
                {
                    "components": [
                        {
                            "internalType": "uint256",
                            "name": "tradeId",
                            "type": "uint256"
                        },
                        {
                            "internalType": "uint256",
                            "name": "listingId",
                            "type": "uint256"
                        },
                        {
                            "internalType": "address",
                            "name": "seller",
                            "type": "address"
                        },
                        {
                            "internalType": "address",
                            "name": "buyer",
                            "type": "address"
                        },
                        {
                            "internalType": "uint256",
                            "name": "executedPrice",
                            "type": "uint256"
                        },
                        {
                            "internalType": "uint256",
                            "name": "executedQuantity",
                            "type": "uint256"
                        },
                        {
                            "internalType": "uint256",
                            "name": "timestamp",
                            "type": "uint256"
                        },
                        {
                            "internalType": "uint256",
                            "name": "platformFee",
                            "type": "uint256"
                        },
                        {
                            "internalType": "uint256",
                            "name": "royaltyFee",
                            "type": "uint256"
                        }
                    ],
                    "internalType": "struct IFluxMarketplace.Trade",
                    "name": "",
                    "type": "tuple"
                }
            ],
            "stateMutability": "view",
            "type": "function"
        },
        {
            "inputs": [
                {
                    "internalType": "bytes32",
                    "name": "role",
                    "type": "bytes32"
                },
                {
                    "internalType": "address",
                    "name": "account",
                    "type": "address"
                }
            ],
            "name": "grantRole",
            "outputs": [],
            "stateMutability": "nonpayable",
            "type": "function"
        },
        {
            "inputs": [
                {
                    "internalType": "bytes32",
                    "name": "role",
                    "type": "bytes32"
                },
                {
                    "internalType": "address",
                    "name": "account",
                    "type": "address"
                }
            ],
            "name": "hasRole",
            "outputs": [
                {
                    "internalType": "bool",
                    "name": "",
                    "type": "bool"
                }
            ],
            "stateMutability": "view",
            "type": "function"
        },
        {
            "inputs": [
                {
                    "internalType": "address",
                    "name": "",
                    "type": "address"
                },
                {
                    "internalType": "address",
                    "name": "",
                    "type": "address"
                },
                {
                    "internalType": "uint256[]",
                    "name": "",
                    "type": "uint256[]"
                },
                {
                    "internalType": "uint256[]",
                    "name": "",
                    "type": "uint256[]"
                },
                {
                    "internalType": "bytes",
                    "name": "",
                    "type": "bytes"
                }
            ],
            "name": "onERC1155BatchReceived",
            "outputs": [
                {
                    "internalType": "bytes4",
                    "name": "",
                    "type": "bytes4"
                }
            ],
            "stateMutability": "pure",
            "type": "function"
        },
        {
            "inputs": [
                {
                    "internalType": "address",
                    "name": "",
                    "type": "address"
                },
                {
                    "internalType": "address",
                    "name": "",
                    "type": "address"
                },
                {
                    "internalType": "uint256",
                    "name": "",
                    "type": "uint256"
                },
                {
                    "internalType": "uint256",
                    "name": "",
                    "type": "uint256"
                },
                {
                    "internalType": "bytes",
                    "name": "",
                    "type": "bytes"
                }
            ],
            "name": "onERC1155Received",
            "outputs": [
                {
                    "internalType": "bytes4",
                    "name": "",
                    "type": "bytes4"
                }
            ],
            "stateMutability": "pure",
            "type": "function"
        },
        {
            "inputs": [],
            "name": "pause",
            "outputs": [],
            "stateMutability": "nonpayable",
            "type": "function"
        },
        {
            "inputs": [],
            "name": "paused",
            "outputs": [
                {
                    "internalType": "bool",
                    "name": "",
                    "type": "bool"
                }
            ],
            "stateMutability": "view",
            "type": "function"
        },
        {
            "inputs": [
                {
                    "internalType": "bytes32",
                    "name": "role",
                    "type": "bytes32"
                },
                {
                    "internalType": "address",
                    "name": "callerConfirmation",
                    "type": "address"
                }
            ],
            "name": "renounceRole",
            "outputs": [],
            "stateMutability": "nonpayable",
            "type": "function"
        },
        {
            "inputs": [
                {
                    "internalType": "bytes32",
                    "name": "role",
                    "type": "bytes32"
                },
                {
                    "internalType": "address",
                    "name": "account",
                    "type": "address"
                }
            ],
            "name": "revokeRole",
            "outputs": [],
            "stateMutability": "nonpayable",
            "type": "function"
        },
        {
            "inputs": [
                {
                    "internalType": "bytes4",
                    "name": "interfaceId",
                    "type": "bytes4"
                }
            ],
            "name": "supportsInterface",
            "outputs": [
                {
                    "internalType": "bool",
                    "name": "",
                    "type": "bool"
                }
            ],
            "stateMutability": "view",
            "type": "function"
        },
        {
            "inputs": [],
            "name": "unpause",
            "outputs": [],
            "stateMutability": "nonpayable",
            "type": "function"
        },
        {
            "inputs": [
                {
                    "internalType": "uint256",
                    "name": "platformFeeBps",
                    "type": "uint256"
                },
                {
                    "internalType": "address",
                    "name": "feeRecipient",
                    "type": "address"
                }
            ],
            "name": "updateFeeConfig",
            "outputs": [],
            "stateMutability": "nonpayable",
            "type": "function"
        },
        {
            "inputs": [
                {
                    "internalType": "uint256",
                    "name": "listingId",
                    "type": "uint256"
                },
                {
                    "internalType": "uint256",
                    "name": "newPrice",
                    "type": "uint256"
                },
                {
                    "internalType": "uint256",
                    "name": "newDeadline",
                    "type": "uint256"
                }
            ],
            "name": "updateListing",
            "outputs": [],
            "stateMutability": "nonpayable",
            "type": "function"
        },
        {
            "stateMutability": "payable",
            "type": "receive"
        }
    ],
    "bytecode": "0x60806040523480156200001157600080fd5b506040516200321038038062003210833981016040819052620000349162000229565b60016000556101f4821115620000805760405162461bcd60e51b815260206004820152600c60248201526b08ccaca40e8dede40d0d2ced60a31b60448201526064015b60405180910390fd5b6001600160a01b038116620000d85760405162461bcd60e51b815260206004820152601560248201527f496e76616c69642066656520726563697069656e740000000000000000000000604482015260640162000077565b604080516060810182528381526001600160a01b038316602082018190526000919092018190526006849055600780546001600160a01b03199081169093179055600880549092169091556200012f903362000192565b506200015c7fa49807205ce4d355092ef5a8a18f56e8913cf4a201fbe287825b095693c217753362000192565b50620001897f97667070c54ef182b0f5858b034beac1b6f3089aa2d3188bb1e8929f4fa9b9293362000192565b50505062000268565b60008281526001602090815260408083206001600160a01b038516845290915281205460ff166200021f5760008381526001602081815260408084206001600160a01b0387168086529252808420805460ff19169093179092559051339286917f2f8788117e7eff1d82e926ec794901d17c78024a50270940304540a733656f0d9190a450600162000223565b5060005b92915050565b600080604083850312156200023d57600080fd5b825160208401519092506001600160a01b03811681146200025d57600080fd5b809150509250929050565b612f9880620002786000396000f3fe6080604052600436106101e75760003560e01c806375b238fc11610102578063bc197c8111610095578063f23a6e6111610064578063f23a6e6114610675578063f5b541a6146106a2578063f6cf2a16146106d6578063fbb1e497146106f657600080fd5b8063bc197c81146105cd578063c815729d14610615578063d547741f14610635578063ef706adf1461065557600080fd5b806391d14854116100d157806391d148541461056557806395ccea67146105855780639979c009146105a5578063a217fddf146105b857600080fd5b806375b238fc146104e65780638456cb591461051a57806388f0bc731461052f578063918f86741461054f57600080fd5b80633998a6811161017a57806352238fdd1161014957806352238fdd1461044c5780635c975abb146104815780635f42da091461049957806374d6ba65146104c657600080fd5b80633998a681146103e15780633a97f852146103f75780633f4ba83a1461040a5780634579268a1461041f57600080fd5b80632db25e05116101b65780632db25e05146102e45780632f2ff15d1461037f578063305a67a8146103a157806336568abe146103c157600080fd5b806301ffc9a7146101f3578063107a274a146102285780631e5eb1d014610255578063248a9ca3146102a557600080fd5b366101ee57005b600080fd5b3480156101ff57600080fd5b5061021361020e36600461290f565b610716565b60405190151581526020015b60405180910390f35b34801561023457600080fd5b50610248610243366004612940565b61074d565b60405161021f9190612993565b34801561026157600080fd5b5060065460075460085461028092916001600160a01b03908116911683565b604080519384526001600160a01b03928316602085015291169082015260600161021f565b3480156102b157600080fd5b506102d66102c0366004612940565b6000908152600160208190526040909120015490565b60405190815260200161021f565b3480156102f057600080fd5b506103046102ff366004612940565b61084d565b60405161021f91906000610120820190508251825260208301516020830152604083015160018060a01b03808216604085015280606086015116606085015250506080830151608083015260a083015160a083015260c083015160c083015260e083015160e083015261010080840151818401525092915050565b34801561038b57600080fd5b5061039f61039a366004612a65565b610935565b005b3480156103ad57600080fd5b5061039f6103bc366004612940565b610961565b3480156103cd57600080fd5b5061039f6103dc366004612a65565b610aaa565b3480156103ed57600080fd5b506102d66101f481565b6102d6610405366004612a95565b610ae2565b34801561041657600080fd5b5061039f610f07565b34801561042b57600080fd5b5061043f61043a366004612940565b610f39565b60405161021f9190612ac7565b34801561045857600080fd5b5061046c610467366004612940565b610fd2565b6040805192835260208301919091520161021f565b34801561048d57600080fd5b5060025460ff16610213565b3480156104a557600080fd5b506104b96104b4366004612b2d565b610ffc565b60405161021f9190612b4a565b3480156104d257600080fd5b506102d66104e1366004612b8e565b611068565b3480156104f257600080fd5b506102d67fa49807205ce4d355092ef5a8a18f56e8913cf4a201fbe287825b095693c2177581565b34801561052657600080fd5b5061039f6113ba565b34801561053b57600080fd5b5061039f61054a366004612a65565b6113ec565b34801561055b57600080fd5b506102d661271081565b34801561057157600080fd5b50610213610580366004612a65565b611503565b34801561059157600080fd5b5061039f6105a0366004612c03565b61152e565b61039f6105b3366004612c2f565b6115a7565b3480156105c457600080fd5b506102d6600081565b3480156105d957600080fd5b506105fc6105e8366004612cdf565b63bc197c8160e01b98975050505050505050565b6040516001600160e01b0319909116815260200161021f565b34801561062157600080fd5b5061039f610630366004612940565b6117cb565b34801561064157600080fd5b5061039f610650366004612a65565b6119d6565b34801561066157600080fd5b5061039f610670366004612940565b6119fc565b34801561068157600080fd5b506105fc610690366004612d9e565b63f23a6e6160e01b9695505050505050565b3480156106ae57600080fd5b506102d67f97667070c54ef182b0f5858b034beac1b6f3089aa2d3188bb1e8929f4fa9b92981565b3480156106e257600080fd5b5061039f6106f1366004612e1a565b611bb3565b34801561070257600080fd5b506104b9610711366004612940565b611d23565b60006001600160e01b03198216637965db0b60e01b148061074757506301ffc9a760e01b6001600160e01b03198316145b92915050565b610755612842565b6000828152600960209081526040918290208251610160810184528154815260018201546001600160a01b0381169382019390935292909190830190600160a01b900460ff1660028111156107ac576107ac612959565b60028111156107bd576107bd612959565b815260028201546001600160a01b03908116602083015260038301546040830152600483015460608301526005808401546080840152600684015490911660a0830152600783015460c0830152600883015460e083015260098301546101009092019160ff169081111561083357610833612959565b600581111561084457610844612959565b90525092915050565b6108ae604051806101200160405280600081526020016000815260200160006001600160a01b0316815260200160006001600160a01b0316815260200160008152602001600081526020016000815260200160008152602001600081525090565b506000908152600b60209081526040918290208251610120810184528154815260018201549281019290925260028101546001600160a01b03908116938301939093526003810154909216606082015260048201546080820152600582015460a0820152600682015460c0820152600782015460e082015260089091015461010082015290565b6000828152600160208190526040909120015461095181611d83565b61095b8383611d8d565b50505050565b610969611e06565b600081815260096020526040902060018101546001600160a01b031633146109ac5760405162461bcd60e51b81526004016109a390612e46565b60405180910390fd5b6001600982015460ff1660058111156109c7576109c7612959565b14806109eb57506002600982015460ff1660058111156109e9576109e9612959565b145b610a275760405162461bcd60e51b815260206004820152600d60248201526c10d85b9b9bdd0818d85b98d95b609a1b60448201526064016109a3565b60048181015460098301805460ff1916909217909155600182015460028301546003840154610a70923392600160a01b90910460ff16916001600160a01b039091169085611e30565b60405183907f411aee90354c51b1b04cd563fcab2617142a9d50da19232d888547c8a1b7fd8a90600090a25050610aa76001600055565b50565b6001600160a01b0381163314610ad35760405163334bd91960e11b815260040160405180910390fd5b610add8282611f6e565b505050565b6000610aec611fdb565b610af4611e06565b60008581526009602052604090206001600982015460ff166005811115610b1d57610b1d612959565b1480610b4157506002600982015460ff166005811115610b3f57610b3f612959565b145b610b7d5760405162461bcd60e51b815260206004820152600d60248201526c4e6f7420617661696c61626c6560981b60448201526064016109a3565b60008511610bc35760405162461bcd60e51b8152602060048201526013602482015272496e76616c6964206f6666657220707269636560681b60448201526064016109a3565b600084118015610bd7575080600401548411155b610c165760405162461bcd60e51b815260206004820152601060248201526f496e76616c6964207175616e7469747960801b60448201526064016109a3565b428311610c5a5760405162461bcd60e51b815260206004820152601260248201527124b73b30b634b21032bc3834b930ba34b7b760711b60448201526064016109a3565b60048054906000610c6a83612e84565b9091555060068201549092506001600160a01b0316610cfb57843414610cc65760405162461bcd60e51b8152602060048201526011602482015270125b98dbdc9c9958dd081c185e5b595b9d607a1b60448201526064016109a3565b336000908152600f6020908152604080832083805290915281208054879290610cf0908490612e9d565b90915550610d909050565b3415610d395760405162461bcd60e51b815260206004820152600d60248201526c139bc8115512081b9959591959609a1b60448201526064016109a3565b6006810154610d53906001600160a01b0316333088612001565b336000908152600f6020908152604080832060068501546001600160a01b0316845290915281208054879290610d8a908490612e9d565b90915550505b6040518060e00160405280838152602001878152602001336001600160a01b0316815260200186815260200185815260200184815260200160006004811115610ddb57610ddb612959565b815250600a6000848152602001908152602001600020600082015181600001556020820151816001015560408201518160020160006101000a8154816001600160a01b0302191690836001600160a01b03160217905550606082015181600301556080820151816004015560a0820151816005015560c08201518160060160006101000a81548160ff02191690836004811115610e7a57610e7a612959565b021790555050506000868152600d602090815260408083208054600180820183559185528385200186905533808552600e8452828520805492830181558552938390200185905551878152889185917f32645f28ae455f14af7a547728c579fc5a3f52d9c6db6d22a0de0ded95c82cbe910160405180910390a450610eff6001600055565b949350505050565b7f97667070c54ef182b0f5858b034beac1b6f3089aa2d3188bb1e8929f4fa9b929610f3181611d83565b610aa7612068565b610f416128be565b6000828152600a6020908152604091829020825160e0810184528154815260018201549281019290925260028101546001600160a01b031692820192909252600382015460608201526004808301546080830152600583015460a0830152600683015491929160c084019160ff90911690811115610fc157610fc1612959565b600481111561084457610844612959565b60008061271060066000015484610fe99190612eb0565b610ff39190612ec7565b93849350915050565b6001600160a01b0381166000908152600c602090815260409182902080548351818402810184019094528084526060939283018282801561105c57602002820191906000526020600020905b815481526020019060010190808311611048575b50505050509050919050565b6000611072611fdb565b61107a611e06565b6001600160a01b0387166110c95760405162461bcd60e51b8152602060048201526016602482015275125b9d985b1a5908185cdcd95d0818dbdb9d1c9858dd60521b60448201526064016109a3565b6000851161110a5760405162461bcd60e51b815260206004820152600e60248201526d125b9d985b1a5908185b5bdd5b9d60921b60448201526064016109a3565b6000831161114a5760405162461bcd60e51b815260206004820152600d60248201526c496e76616c696420707269636560981b60448201526064016109a3565b42821161118c5760405162461bcd60e51b815260206004820152601060248201526f496e76616c696420646561646c696e6560801b60448201526064016109a3565b6003805490600061119c83612e84565b9190505590506111af33898989896120ba565b60408051610160810182528281523360208201529081018960028111156111d8576111d8612959565b8152602001886001600160a01b03168152602001878152602001868152602001868152602001856001600160a01b031681526020018481526020018381526020016001600581111561122c5761122c612959565b905260008281526009602090815260409182902083518155908301516001820180546001600160a01b039092166001600160a01b031983168117825593850151929390916001600160a81b03191617600160a01b83600281111561129257611292612959565b021790555060608201516002820180546001600160a01b03199081166001600160a01b03938416179091556080840151600384015560a0840151600484015560c084015160058085019190915560e08501516006850180549093169316929092179055610100830151600783015561012083015160088301556101408301516009830180549192909160ff191690600190849081111561133457611334612959565b021790555050336000818152600c6020908152604080832080546001810182559084529282902090920185905581518a81529081018790526001600160a01b038b16935084917f508c75a3cb42c068e54cf9e0b738921b4e2375725c5965ef4a110475606fc05a910160405180910390a46113af6001600055565b979650505050505050565b7f97667070c54ef182b0f5858b034beac1b6f3089aa2d3188bb1e8929f4fa9b9296113e481611d83565b610aa7612187565b7fa49807205ce4d355092ef5a8a18f56e8913cf4a201fbe287825b095693c2177561141681611d83565b6101f48311156114575760405162461bcd60e51b815260206004820152600c60248201526b08ccaca40e8dede40d0d2ced60a31b60448201526064016109a3565b6001600160a01b0382166114a15760405162461bcd60e51b8152602060048201526011602482015270125b9d985b1a59081c9958da5c1a595b9d607a1b60448201526064016109a3565b6006839055600780546001600160a01b0319166001600160a01b0384169081179091556040805185815260208101929092527fe125ae54d7ba2b06e6f44852861516acb2dd2692cf41fb127fa03252f15b334e910160405180910390a1505050565b60009182526001602090815260408084206001600160a01b0393909316845291905290205460ff1690565b7fa49807205ce4d355092ef5a8a18f56e8913cf4a201fbe287825b095693c2177561155881611d83565b6001600160a01b03831661159357604051339083156108fc029084906000818181858888f1935050505015801561095b573d6000803e3d6000fd5b610add6001600160a01b03841633846121c4565b6115af611fdb565b6115b7611e06565b60008281526009602052604090206001600982015460ff1660058111156115e0576115e0612959565b148061160457506002600982015460ff16600581111561160257611602612959565b145b6116405760405162461bcd60e51b815260206004820152600d60248201526c4e6f7420617661696c61626c6560981b60448201526064016109a3565b42816008015410156116865760405162461bcd60e51b815260206004820152600f60248201526e131a5cdd1a5b99c8195e1c1a5c9959608a1b60448201526064016109a3565b60008211801561169a575080600401548211155b6116d95760405162461bcd60e51b815260206004820152601060248201526f496e76616c6964207175616e7469747960801b60448201526064016109a3565b600081600501548383600701546116f09190612eb0565b6116fa9190612ec7565b60068301549091506001600160a01b0316611757578034146117525760405162461bcd60e51b8152602060048201526011602482015270125b98dbdc9c9958dd081c185e5b595b9d607a1b60448201526064016109a3565b6117af565b34156117955760405162461bcd60e51b815260206004820152600d60248201526c139bc8115512081b9959591959609a1b60448201526064016109a3565b60068201546117af906001600160a01b0316333084612001565b6117bb843385846121f5565b50506117c76001600055565b5050565b6117d3611fdb565b6117db611e06565b6000818152600a60209081526040808320600180820154855260099093529220908101546001600160a01b031633146118265760405162461bcd60e51b81526004016109a390612e46565b6000600683015460ff16600481111561184157611841612959565b146118825760405162461bcd60e51b81526020600482015260116024820152704f66666572206e6f742070656e64696e6760781b60448201526064016109a3565b42826005015410156118c65760405162461bcd60e51b815260206004820152600d60248201526c13d999995c88195e1c1a5c9959609a1b60448201526064016109a3565b6001600982015460ff1660058111156118e1576118e1612959565b148061190557506002600982015460ff16600581111561190357611903612959565b145b6119465760405162461bcd60e51b81526020600482015260126024820152714c697374696e67206e6f742061637469766560701b60448201526064016109a3565b6006828101805460ff19166001179055600383015460028401546001600160a01b039081166000908152600f6020908152604080832095870154909316825293909352822080549192909161199c908490612ee9565b909155505060018201546002830154600484015460038501546119ca93926001600160a01b031691906121f5565b5050610aa76001600055565b600082815260016020819052604090912001546119f281611d83565b61095b8383611f6e565b611a04611e06565b6000818152600a6020526040902060028101546001600160a01b03163314611a5e5760405162461bcd60e51b815260206004820152600d60248201526c2737ba103a343290313abcb2b960991b60448201526064016109a3565b6000600682015460ff166004811115611a7957611a79612959565b14611ab65760405162461bcd60e51b815260206004820152600d60248201526c10d85b9b9bdd0818d85b98d95b609a1b60448201526064016109a3565b6006810180546003919060ff19166001830217905550600181015460009081526009602090815260408083206003850154338552600f845282852060068301546001600160a01b03168652909352908320805491938392611b18908490612ee9565b909155505060068201546001600160a01b0316611b6257604051339082156108fc029083906000818181858888f19350505050158015611b5c573d6000803e3d6000fd5b50611b7b565b6006820154611b7b906001600160a01b031633836121c4565b60405184907fc28b4aed030bfacc245c0501326e1beb8c0ef0d60e4edc21067fdeb52da2a7aa90600090a2505050610aa76001600055565b611bbb611fdb565b600083815260096020526040902060018101546001600160a01b03163314611bf55760405162461bcd60e51b81526004016109a390612e46565b6001600982015460ff166005811115611c1057611c10612959565b14611c525760405162461bcd60e51b81526020600482015260126024820152714c697374696e67206e6f742061637469766560701b60448201526064016109a3565b60008311611c925760405162461bcd60e51b815260206004820152600d60248201526c496e76616c696420707269636560981b60448201526064016109a3565b428211611cd45760405162461bcd60e51b815260206004820152601060248201526f496e76616c696420646561646c696e6560801b60448201526064016109a3565b6007810183905560088101829055604080518481526020810184905285917ff7adc9a0380a940c6058d78194df6a9b9fa5bb431bbad15194913bb611f3f4f7910160405180910390a250505050565b6000818152600d602090815260409182902080548351818402810184019094528084526060939283018282801561105c57602002820191906000526020600020908154815260200190600101908083116110485750505050509050919050565b610aa781336126d2565b6000611d998383611503565b611dfe5760008381526001602081815260408084206001600160a01b0387168086529252808420805460ff19169093179092559051339286917f2f8788117e7eff1d82e926ec794901d17c78024a50270940304540a733656f0d9190a4506001610747565b506000610747565b600260005403611e2957604051633ee5aeb560e01b815260040160405180910390fd5b6002600055565b6000846002811115611e4457611e44612959565b03611e6257611e5d6001600160a01b03841686836121c4565b611f67565b6001846002811115611e7657611e76612959565b03611ee9576040516323b872dd60e01b81523060048201526001600160a01b038681166024830152604482018490528416906323b872dd906064015b600060405180830381600087803b158015611ecc57600080fd5b505af1158015611ee0573d6000803e3d6000fd5b50505050611f67565b6002846002811115611efd57611efd612959565b03611f6757604051637921219560e11b81526001600160a01b0384169063f242432a90611f34903090899087908790600401612efc565b600060405180830381600087803b158015611f4e57600080fd5b505af1158015611f62573d6000803e3d6000fd5b505050505b5050505050565b6000611f7a8383611503565b15611dfe5760008381526001602090815260408083206001600160a01b0386168085529252808320805460ff1916905551339286917ff6391f5c32d9c69d2a47ea670b442974b53935d1edc7fd64eb21e047a839171b9190a4506001610747565b60025460ff1615611fff5760405163d93c066560e01b815260040160405180910390fd5b565b6040516001600160a01b03848116602483015283811660448301526064820183905261095b9186918216906323b872dd906084015b604051602081830303815290604052915060e01b6020820180516001600160e01b03838183161783525050505061270b565b61207061277c565b6002805460ff191690557f5db9ee0a495bf2e6ff9c91a7834c1ba4fdd244a5e8aa4e537bd38aeae4b073aa335b6040516001600160a01b03909116815260200160405180910390a1565b60008460028111156120ce576120ce612959565b036120e857611e5d6001600160a01b038416863084612001565b60018460028111156120fc576120fc612959565b0361213c576040516323b872dd60e01b81526001600160a01b038681166004830152306024830152604482018490528416906323b872dd90606401611eb2565b600284600281111561215057612150612959565b03611f6757604051637921219560e11b81526001600160a01b0384169063f242432a90611f34908890309087908790600401612efc565b61218f611fdb565b6002805460ff191660011790557f62e78cea01bee320cd4e420270b5ea74000d11b0c9f74754ebdbfc544b05a25861209d3390565b6040516001600160a01b03838116602483015260448201839052610add91859182169063a9059cbb90606401612036565b600084815260096020526040812060058054919291908261221583612e84565b9190505590506000806122448460020160009054906101000a90046001600160a01b031685600301548761279f565b90925090506000816122568488612ee9565b6122609190612ee9565b60068601549091506001600160a01b03166122f95760018501546040516001600160a01b039091169082156108fc029083906000818181858888f193505050501580156122b1573d6000803e3d6000fd5b5082156122f4576007546040516001600160a01b039091169084156108fc029085906000818181858888f193505050501580156122f2573d6000803e3d6000fd5b505b61233f565b6001850154600686015461231a916001600160a01b039182169116836121c4565b821561233f57600754600686015461233f916001600160a01b039182169116856121c4565b60008211801561236d5750600180860154600160a01b900460ff16600281111561236b5761236b612959565b145b15612476576002850154600386015460405163152a902d60e11b81526001600160a01b0390921691632a55205a916123b2918a90600401918252602082015260400190565b6040805180830381865afa9250505080156123ea575060408051601f3d908101601f191682019092526123e791810190612f34565b60015b156124765760008111801561240757506001600160a01b03821615155b156124735760068701546001600160a01b031661245a576040516001600160a01b0383169082156108fc029083906000818181858888f19350505050158015612454573d6000803e3d6000fd5b50612473565b6006870154612473906001600160a01b031683836121c4565b50505b6001850154600286015460038701546124a9928b92600160a01b90910460ff16916001600160a01b03909116908b611e30565b868560040160008282546124bd9190612ee9565b909155505060048501546000036124e25760098501805460ff191660031790556124f2565b60098501805460ff191660021790555b6040518061012001604052808581526020018a81526020018660010160009054906101000a90046001600160a01b03166001600160a01b03168152602001896001600160a01b0316815260200187815260200188815260200142815260200184815260200183815250600b6000868152602001908152602001600020600082015181600001556020820151816001015560408201518160020160006101000a8154816001600160a01b0302191690836001600160a01b0316021790555060608201518160030160006101000a8154816001600160a01b0302191690836001600160a01b031602179055506080820151816004015560a0820151816005015560c0820151816006015560e08201518160070155610100820151816008015590505088847f15e0d41a04dd94271eba462c33812ee3d36a08eddcf7e4cff32f9ef872dea02e8760010160009054906101000a90046001600160a01b03168b8a8c60405161268494939291906001600160a01b0394851681529290931660208301526040820152606081019190915260800190565b60405180910390a3604080518481526020810184905285917fa54e6c2fc0861aa9c991b26891d71059d517983b9e84b91020f42609c452eb9d910160405180910390a2505050505050505050565b6126dc8282611503565b6117c75760405163e2517d3f60e01b81526001600160a01b0382166004820152602481018390526044016109a3565b600080602060008451602086016000885af18061272e576040513d6000823e3d81fd5b50506000513d91508115612746578060011415612753565b6001600160a01b0384163b155b1561095b57604051635274afe760e01b81526001600160a01b03851660048201526024016109a3565b60025460ff16611fff57604051638dfc202b60e01b815260040160405180910390fd5b600080612710600660000154846127b69190612eb0565b6127c09190612ec7565b60405163152a902d60e11b815260048101869052602481018590529092506001600160a01b03861690632a55205a906044016040805180830381865afa92505050801561282a575060408051601f3d908101601f1916820190925261282791810190612f34565b60015b6128365750600061283a565b9150505b935093915050565b60408051610160810182526000808252602082018190529091820190815260200160006001600160a01b0316815260200160008152602001600081526020016000815260200160006001600160a01b031681526020016000815260200160008152602001600060058111156128b9576128b9612959565b905290565b6040518060e00160405280600081526020016000815260200160006001600160a01b03168152602001600081526020016000815260200160008152602001600060048111156128b9576128b9612959565b60006020828403121561292157600080fd5b81356001600160e01b03198116811461293957600080fd5b9392505050565b60006020828403121561295257600080fd5b5035919050565b634e487b7160e01b600052602160045260246000fd5b6003811061297f5761297f612959565b9052565b6006811061297f5761297f612959565b815181526020808301516101608301916129b7908401826001600160a01b03169052565b5060408301516129ca604084018261296f565b5060608301516129e560608401826001600160a01b03169052565b506080830151608083015260a083015160a083015260c083015160c083015260e0830151612a1e60e08401826001600160a01b03169052565b506101008381015190830152610120808401519083015261014080840151612a4882850182612983565b505092915050565b6001600160a01b0381168114610aa757600080fd5b60008060408385031215612a7857600080fd5b823591506020830135612a8a81612a50565b809150509250929050565b60008060008060808587031215612aab57600080fd5b5050823594602084013594506040840135936060013592509050565b81518152602080830151908201526040808301516001600160a01b031690820152606080830151908201526080808301519082015260a0808301519082015260c082015160e082019060058110612b2057612b20612959565b8060c08401525092915050565b600060208284031215612b3f57600080fd5b813561293981612a50565b6020808252825182820181905260009190848201906040850190845b81811015612b8257835183529284019291840191600101612b66565b50909695505050505050565b600080600080600080600060e0888a031215612ba957600080fd5b873560038110612bb857600080fd5b96506020880135612bc881612a50565b955060408801359450606088013593506080880135612be681612a50565b9699959850939692959460a0840135945060c09093013592915050565b60008060408385031215612c1657600080fd5b8235612c2181612a50565b946020939093013593505050565b60008060408385031215612c4257600080fd5b50508035926020909101359150565b60008083601f840112612c6357600080fd5b50813567ffffffffffffffff811115612c7b57600080fd5b6020830191508360208260051b8501011115612c9657600080fd5b9250929050565b60008083601f840112612caf57600080fd5b50813567ffffffffffffffff811115612cc757600080fd5b602083019150836020828501011115612c9657600080fd5b60008060008060008060008060a0898b031215612cfb57600080fd5b8835612d0681612a50565b97506020890135612d1681612a50565b9650604089013567ffffffffffffffff80821115612d3357600080fd5b612d3f8c838d01612c51565b909850965060608b0135915080821115612d5857600080fd5b612d648c838d01612c51565b909650945060808b0135915080821115612d7d57600080fd5b50612d8a8b828c01612c9d565b999c989b5096995094979396929594505050565b60008060008060008060a08789031215612db757600080fd5b8635612dc281612a50565b95506020870135612dd281612a50565b94506040870135935060608701359250608087013567ffffffffffffffff811115612dfc57600080fd5b612e0889828a01612c9d565b979a9699509497509295939492505050565b600080600060608486031215612e2f57600080fd5b505081359360208301359350604090920135919050565b6020808252600e908201526d2737ba103a34329039b2b63632b960911b604082015260600190565b634e487b7160e01b600052601160045260246000fd5b600060018201612e9657612e96612e6e565b5060010190565b8082018082111561074757610747612e6e565b808202811582820484141761074757610747612e6e565b600082612ee457634e487b7160e01b600052601260045260246000fd5b500490565b8181038181111561074757610747612e6e565b6001600160a01b0394851681529290931660208301526040820152606081019190915260a06080820181905260009082015260c00190565b60008060408385031215612f4757600080fd5b8251612f5281612a50565b602093909301519294929350505056fea2646970667358221220b13691e836f676d559050df3bd9e0fa7d091fc1bc31522ac633a861eb5bb6a9464736f6c63430008180033",
    "linkReferences": {},
    "deployedLinkReferences": {}
}